:020000040800F2
:1000000000C00020DDE40008E5DE0008E7DE0008AF
:10001000E9DE0008EBDE0008EDDE0008000000006D
:10002000000000000000000000000000EFDE0008FB
:10003000F1DE000800000000F3DE0008F5DE000835
:1000400025E5000825E5000825E5000825E5000868
:1000500025E5000825E50008FDDE000811DF0008A1
:1000600025DF000839DF000825E5000825E5000840
:1000700025E5000825E500084DDF00085DDF0008E4
:1000800025E5000825E5000825E5000825E5000828
:1000900025E5000825E5000825E5000825E5000818
:1000A00025E5000825E5000825E5000825E5000808
:1000B00025E500086DDF000825E5000825E50008B6
:1000C00025E5000825E5000825E5000825E50008E8
:1000D00025E500081DE0000825E5000825E50008E5
:1000E00025E5000825E5000825E5000825E50008C8
:1000F00025E5000825E5000825E5000825E50008B8
:1001000025E5000825E5000825E5000825E50008A7
:1001100025E5000825E5000825E5000825E5000897
:1001200025E5000825E5000825E5000825E5000887
:1001300000000000000000000000000000000000BF
:1001400000000000000000000000000000000000AF
:10015000000000000000000000000000000000009F
:10016000000000000000000000000000000000008F
:10017000000000000000000000000000000000007F
:10018000000000000000000000000000000000006F
:10019000000000000000000000000000000000005F
:1001A000000000000000000000000000000000004F
:1001B000000000000000000000000000000000003F
:1001C000000000000000000000000000000000002F
:1001D000000000000000000000000000000000001F
:0401E0005FF8E0F1F3
:1001E80010B5054C237833B9044B13B10448AFF369
:1001F80000800123237010BDF809002000000000D2
:10020800D045010808B5034B1BB103490348AFF3B8
:10021800008008BD00000000FC090020D04501084E
:10022800844641EA000313F0030349D1403A23D33B
:100238000B6803604B6843608B688360CB68C3605E
:100248000B6903614B6943618B698361CB69C36146
:100258000B6A03624B6A43628B6A8362CB6AC3622E
:100268000B6B03634B6B43638B6B8363CB6BC36316
:1002780040304031403ADBD230320BD30B68036058
:100288004B6843608B688360CB68C3601030103163
:10029800103AF3D20C3205D351F8043B40F8043B32
:1002A800043AF9D2043208D0D2071CBF11F8013B36
:1002B80000F8013B01D30B8803806046704700BFFC
:1002C800082A13D38B07B1D010F00303AED0C3F1C3
:1002D8000403D21ADB071CBF11F8013B00F8013BED
:1002E800A4D331F8023B20F8023B9FE7043AD9D364
:1002F800013A11F8013B00F8013BF9D20B78037081
:100308004B7843708B7883706046704781F000416A
:1003180002E000BF83F0004330B54FEA41044FEAE2
:10032800430594EA050F08BF90EA020F1FBF54EA7D
:10033800000C55EA020C7FEA645C7FEA655C00F019
:10034800E2804FEA5454D4EB5555B8BF6D420CDDEA
:100358002C4480EA020281EA030382EA000083EA6D
:10036800010180EA020281EA0303362D88BF30BD0D
:1003780011F0004F4FEA01314FF4801C4CEA113163
:1003880002D0404261EB410113F0004F4FEA0333C2
:100398004CEA133302D0524263EB430394EA050F4D
:1003A80000F0A780A4F10104D5F1200E0DDB02FABC
:1003B8000EFC22FA05F2801841F1000103FA0EF250
:1003C800801843FA05F359410EE0A5F120050EF116
:1003D800200E012A03FA0EFC28BF4CF0020C43FA47
:1003E80005F3C01851EBE37101F0004507D54FF054
:1003F800000EDCF1000C7EEB00006EEB0101B1F5A4
:10040800801F1BD3B1F5001F0CD349085FEA3000E9
:100418004FEA3C0C04F101044FEA445212F5800FF4
:1004280080F09A80BCF1004F08BF5FEA500C50F191
:10043800000041EB045141EA050130BD5FEA4C0C74
:10044800404141EB0101013C28BFB1F5801FE9D2D1
:1004580091F0000F04BF01460020B1FA81F308BFF4
:100468002033A3F10B03B3F120020CDA0C3208DDC0
:1004780002F1140CC2F10C0201FA0CF021FA02F19B
:100488000CE002F11402D8BFC2F1200C01FA02F10B
:1004980020FA0CFCDCBF41EA0C019040E41AA2BF30
:1004A80001EB0451294330BD6FEA04041F3C1CDAF8
:1004B8000C340EDC04F11404C4F1200220FA04F018
:1004C80001FA02F340EA030021FA04F345EA0301C2
:1004D80030BDC4F10C04C4F1200220FA02F001FA84
:1004E80004F340EA0300294630BD21FA04F0294606
:1004F80030BD94F0000F83F4801306BF81F480119F
:100508000134013D4EE77FEA645C18BF7FEA655C11
:1005180029D094EA050F08BF90EA020F05D054EAE3
:10052800000C04BF1946104630BD91EA030F1EBFE8
:100538000021002030BD5FEA545C05D140004941EC
:1005480028BF41F0004130BD14F580043CBF01F5DF
:10055800801130BD01F0004545F0FE4141F47001C5
:100568004FF0000030BD7FEA645C1ABF19461046A0
:100578007FEA655C1CBF0B46024650EA013406BFA1
:1005880052EA033591EA030F41F4002130BD00BF60
:1005980090F0000F04BF0021704730B54FF480641D
:1005A80004F132044FF000054FF0000150E700BF9E
:1005B80090F0000F04BF0021704730B54FF48064FD
:1005C80004F1320410F0004548BF40424FF00001EA
:1005D8003EE700BF42004FEAE2014FEA31014FEA2D
:1005E80002701FBF12F07F4393F07F4F81F060517C
:1005F800704732F07F4208BF704793F07F4F04BFC7
:1006080041F40021704730B54FF4607401F00045A3
:1006180021F000411CE700BF50EA010208BF704703
:1006280030B54FF000050AE050EA010208BF7047F4
:1006380030B511F0004502D5404261EB41014FF45D
:10064800806404F132045FEA915C3FF4D8AE4FF065
:1006580003025FEADC0C18BF03325FEADC0C18BF48
:10066800033202EBDC02C2F1200300FA03FC20FA99
:1006780002F001FA03FE40EA0E0021FA02F11444E6
:10068800BDE600BF70B54FF0FF0C4CF4E06C1CEAFF
:1006980011541DBF1CEA135594EA0C0F95EA0C0F70
:1006A80000F0DEF82C4481EA030621EA4C5123EAE3
:1006B8004C5350EA013518BF52EA033541F4801112
:1006C80043F4801338D0A0FB02CE4FF00005E1FBC5
:1006D80002E506F00042E0FB03E54FF00006E1FB0F
:1006E80003569CF0000F18BF4EF0010EA4F1FF0452
:1006F800B6F5007F64F5407404D25FEA4E0E6D4192
:1007080046EB060642EAC62141EA55514FEAC520A2
:1007180040EA5E504FEACE2EB4F1FD0C88BFBCF51E
:10072800E06F1ED8BEF1004F08BF5FEA500E50F1CF
:10073800000041EB045170BD06F0004646EA010195
:1007480040EA020081EA0301B4EB5C04C2BFD4EBC7
:100758000C0541EA045170BD41F480114FF0000EC0
:10076800013C00F3AB8014F1360FDEBF002001F02E
:10077800004170BDC4F10004203C35DA0C341BDCA8
:1007880004F11404C4F1200500FA05F320FA04F07A
:1007980001FA05F240EA020001F0004221F00041AE
:1007A80010EBD37021FA04F642EB06015EEA430E21
:1007B80008BF20EAD37070BDC4F10C04C4F1200551
:1007C80000FA04F320FA05F001FA04F240EA020004
:1007D80001F0004110EBD37041F100015EEA430ED5
:1007E80008BF20EAD37070BDC4F1200500FA05F2F5
:1007F8004EEA020E20FA04F301FA05F243EA020374
:1008080021FA04F001F0004121FA04F220EA020082
:1008180000EBD3705EEA430E08BF20EAD37070BDC8
:1008280094F0000F0FD101F00046400041EB0101A8
:1008380011F4801F08BF013CF7D041EA060195F08A
:10084800000F18BF704703F00046520043EB030344
:1008580013F4801F08BF013DF7D043EA0603704731
:1008680094EA0C0F0CEA135518BF95EA0C0F0CD03C
:1008780050EA410618BF52EA4306D1D181EA030182
:1008880001F000414FF0000070BD50EA410606BF7C
:100898001046194652EA430619D094EA0C0F02D1C1
:1008A80050EA013613D195EA0C0F05D152EA033606
:1008B8001CBF104619460AD181EA030101F0004124
:1008C80041F0FE4141F470014FF0000070BD41F06D
:1008D800FE4141F4780170BD70B54FF0FF0C4CF447
:1008E800E06C1CEA11541DBF1CEA135594EA0C0F66
:1008F80095EA0C0F00F0A7F8A4EB050481EA030EB3
:1009080052EA03354FEA013100F088804FEA033399
:100918004FF0805545EA131343EA12634FEA022267
:1009280045EA111545EA10654FEA00260EF0004128
:100938009D4208BF964244F1FD0404F5407402D27A
:100948005B084FEA3202B61A65EB03055B084FEA0B
:1009580032024FF480104FF4002CB6EB020E75EB08
:10096800030E22BFB61A754640EA0C005B084FEA30
:100978003202B6EB020E75EB030E22BFB61A7546AD
:1009880040EA5C005B084FEA3202B6EB020E75EBF8
:10099800030E22BFB61A754640EA9C005B084FEA70
:1009A8003202B6EB020E75EB030E22BFB61A75467D
:1009B80040EADC0055EA060E18D04FEA051545EA6C
:1009C80016754FEA06164FEAC30343EA52734FEA15
:1009D800C2025FEA1C1CC0D111F4801F0BD141EA8E
:1009E80000014FF000004FF0004CB6E711F4801FF3
:1009F80004BF01430020B4F1FD0C88BFBCF5E06FD3
:100A08003FF6AFAEB5EB030C04BFB6EB020C5FEAE2
:100A1800500C50F1000041EB045170BD0EF0004E37
:100A28004EEA113114EB5C04C2BFD4EB0C0541EA69
:100A3800045170BD41F480114FF0000E013C90E666
:100A480045EA060E8DE60CEA135594EA0C0F08BF2A
:100A580095EA0C0F3FF43BAF94EA0C0F0AD150EA29
:100A680001347FF434AF95EA0C0F7FF425AF1046BC
:100A780019462CE795EA0C0F06D152EA03353FF4E4
:100A8800FDAE1046194622E750EA410618BF52EA61
:100A980043067FF4C5AE50EA41047FF40DAF52EA35
:100AA80043057FF4EBAE12E74FF0FF3C06E000BFD2
:100AB8004FF0010C02E000BF4FF0010C4DF804CDDF
:100AC8004FEA410C7FEA6C5C4FEA430C18BF7FEA9F
:100AD8006C5C1BD001B050EA410C0CBF52EA430CCD
:100AE80091EA030F02BF90EA020F0020704710F14D
:100AF800000F91EA030F58BF994208BF90422CBFDC
:100B0800D8176FEAE37040F0010070474FEA410CD4
:100B18007FEA6C5C02D150EA013C07D14FEA430CF2
:100B28007FEA6C5CD6D152EA033CD3D05DF8040B63
:100B3800704700BF8446104662468C461946634695
:100B480000E000BF01B5FFF7B7FF002848BF10F16C
:100B5800000F01BD4DF808EDFFF7F4FF0CBF0120B1
:100B680000205DF808FB00BF4DF808EDFFF7EAFF2D
:100B780034BF012000205DF808FB00BF4DF808EDE8
:100B8800FFF7E0FF94BF012000205DF808FB00BFDD
:100B98004DF808EDFFF7CEFF94BF012000205DF867
:100BA80008FB00BF4DF808EDFFF7C4FF34BF012074
:100BB80000205DF808FB00BF4FEA410C7FEA6C5C3F
:100BC80002D150EA013C0AD14FEA430C7FEA6C5C3F
:100BD80002D152EA033C02D14FF0000070474FF0B7
:100BE800010070474FEA410212F5001215D211D5E3
:100BF8006FF47873B3EB625212D94FEAC12343F012
:100C0800004343EA505311F0004F23FA02F018BF93
:100C1800404270474FF00000704750EA013005D15C
:100C280011F0004008BF6FF0004070474FF000001F
:100C3800704700BF53B94AB9002908BF00281CBF34
:100C48004FF0FF314FF0FF3000F076B9ADF1080CEE
:100C58006DE904CE00F006F8DDF804E0DDE90223D2
:100C680004B070472DE9F047089E0D4604468846B3
:100C7800002B4DD18A42944668D9B2FA82F252B119
:100C880001FA02F3C2F1200120FA01F10CFA02FC88
:100C980041EA030894404FEA1C41B8FBF1F71FFAF8
:100CA8008CFE01FB178807FB0EF0230C43EA084370
:100CB80098420AD91CEB030307F1FF3580F01E8127
:100CC800984240F21B81023F63441B1AB3FBF1F0C8
:100CD80001FB103300FB0EFEA4B244EA0344A64510
:100CE8000AD91CEB040400F1FF3380F00981A64502
:100CF80040F20681644402380021A4EB0E0440EA65
:100D080007401EB10023D440C6E90043BDE8F08780
:100D18008B4208D9002E00F0EE800021C6E90005BC
:100D28000846BDE8F087B3FA83F100294AD1AB42FF
:100D380002D3824200F2FC80841A65EB030301208F
:100D48009846002EE2D0C6E90048DFE702B9FFDE88
:100D5800B2FA82F2002A40F09180A1EB0C00012146
:100D68004FEA1C471FFA8CFEB0FBF7F307FB130092
:100D7800250C45EA00450EFB03F0A84208D91CEBF8
:100D8800050503F1FF3802D2A84200F2CE8043469F
:100D98002D1AB5FBF7F007FB10550EFB00FEA4B2A9
:100DA80044EA0544A64508D91CEB040400F1FF35C4
:100DB80002D2A64500F2B6802846A4EB0E0440EA0B
:100DC80003409EE7C1F120078B4022FA07FC4CEA5A
:100DD800030C25FA07FA4FEA1C49BAFBF9F820FA7E
:100DE80007F309FB18AA8D401FFA8CFE1D4300FA71
:100DF80001F308FB0EF02C0C44EA0A44A04202FA64
:100E080001F20BD91CEB040408F1FF3A80F088804A
:100E1800A04240F28580A8F102086444241AB4FB79
:100E2800F9F009FB104400FB0EFEADB245EA04449C
:100E3800A64508D91CEB040400F1FF356CD2A64581
:100E48006AD90238644440EA0840A0FB0295A4EB42
:100E58000E04AC42C846AE4656D353D0002E69D0D5
:100E6800B3EB080264EB0E0422FA01F304FA07F765
:100E78001F43CC40C6E90074002147E70CFA02FC86
:100E8800C2F1200125FA01F34FEA1C4720FA01F1CB
:100E980095400D43B3FBF7F107FB11331FFA8CFEA6
:100EA800280C40EA034001FB0EF3834204FA02F4E3
:100EB80008D91CEB000001F1FF382FD283422DD94D
:100EC80002396044C01AB0FBF7F307FB1300ADB258
:100ED80045EA004503FB0EF0A84208D91CEB0505BE
:100EE80003F1FF3816D2A84214D9023B6544281AE8
:100EF80043EA014138E73146304607E72F46E4E642
:100F08001846F9E64B45A9D2B9EB020865EB0C0E79
:100F18000138A3E74346EAE7284694E74146D1E784
:100F2800D0467BE76444023847E7023B65442FE735
:100F3800084606E73146E9E6704700BF10B50446A3
:100F48000E4B18784FF47A73B3FBF0F30C4A106821
:100F5800B0FBF3F000F0A8F868B90F2C01D9012014
:100F68000AE0002221464FF0FF3000F057F8054B09
:100F78001C60002000E0012010BD00BF0000002020
:100F8800440000200400002008B5074A136843F015
:100F980010031360032000F02FF80020FFF7CEFFA6
:100FA8000CF076FF002008BD00200240034A1168BB
:100FB800034B1B780B441360704700BF140A0020D2
:100FC80000000020014B1868704700BF140A002079
:100FD80038B50446FFF7F6FF0546B4F1FF3F02D0E7
:100FE800044B1B781C44FFF7EDFF401BA042FAD3CB
:100FF80038BD00BF00000020074AD36823F4E0632F
:101008001B041B0C000200F4E060034343F0BF63C1
:1010180043F40033D360704700ED00E000B5194B8E
:10102800DB68C3F30223C3F1070CBCF1040F28BF2C
:101038004FF0040C03F1040EBEF1060F18D9033B60
:101048004FF0FF3E0EFA0CFC21EA0C0199400EFA13
:1010580003F322EA0303194300280BDB0901C9B291
:1010680000F1604000F5614080F800135DF804FB72
:101078000023E5E700F00F000901C9B2024B19543B
:10108800F4E700BF00ED00E014ED00E0002807DB06
:1010980000F01F02400901239340024A42F8203021
:1010A800704700BF00E100E00138B0F1807F0BD24B
:1010B8004FF0E0235861054AF02182F82310002000
:1010C800986107221A6170470120704700ED00E01F
:1010D80030B40124056CAC40C56B6C600468636077
:1010E8004368102B05D0036899600368DA6030BC48
:1010F800704703689A600368D960F8E700283AD017
:1011080010B4024600681D4B984229D81C4B034472
:101118001C49A1FB03131B099B0013641A4BD363DF
:10112800022382F82130016821F47F5121F0300137
:10113800536894682343D468234314692343546948
:10114800234394692343D46923430B43036000205A
:101158009063012382F8213082F8200010BC704788
:101168000A4B03440749A1FB03131B099B001364A3
:10117800074BD363D4E70120704700BF0704024040
:10118800F8FFFDBFCDCCCCCC00000240F8FBFDBF82
:101198000004024038B5044690F82000012831D0F8
:1011A800012084F8200094F82100012804D00023AD
:1011B80084F82030022038BD022084F82100002065
:1011C800A0632568286820F0010028602046FFF702
:1011D8007FFFE36A5BB12268136843F00E03136074
:1011E8002268136843F0010313600020E3E72268D4
:1011F800136823F0040313602268136843F00A039A
:101208001360EDE70220D6E708B590F82130022BED
:1012180003D004238363012008BD0268136823F008
:101228000E0313600268136823F001031360036858
:101238004B4A93424ED9783A934224D0143293427F
:1012480030D0143293422FD0143293422FD014321C
:1012580093422FD0143293422FD0143293422FD07E
:1012680002F5627293422ED0143293422DD014327A
:1012780093422CD01432934202D04FF4803203E0D0
:101288004FF4805200E00122364B5A60012380F867
:101298002130002380F82030436B002B5ED0984724
:1012A8000020B9E71022EFE74FF48072ECE74FF423
:1012B8008052E9E74FF48032E6E74FF48012E3E723
:1012C8004FF08072E0E70122DEE71022DCE74FF4FE
:1012D8008072D9E7244A934224D01432934225D00D
:1012E8001432934224D01432934224D014329342BD
:1012F80024D01432934224D01432934224D002F5DD
:101308006272934223D01432934222D01432934211
:1013180021D01432934202D04FF4803203E04FF4CC
:10132800805200E00122114B5A60AFE71022FAE721
:101338004FF48072F7E74FF48052F4E74FF48032AD
:10134800F1E74FF48012EEE74FF08072EBE70122ED
:10135800E9E71022E7E74FF48072E4E700205BE753
:1013680080000240000402400800024000000240E1
:1013780038B5C36B1A6804682568016C04238B4070
:10138800134200F09B8015F0040F00F0978023684B
:1013980013F0200F03D1236823F0040323600368AC
:1013A8009A4A934246D9783A934224D014329342C7
:1013B80028D01432934227D01432934227D01432C3
:1013C800934227D01432934227D01432934227D025
:1013D80002F56272934226D01432934225D0143219
:1013E800934224D01432934202D04FF4802203E077
:1013F8004FF4804200E00422854B5A60C36A03B16F
:10140800984738BD4022F7E74FF48062F4E74FF47D
:101418008042F1E74FF48022EEE74FF48002EBE7D9
:101428004FF08062E8E70422E6E74022E4E74FF461
:101438008062E1E7774A934224D01432934225D060
:101448001432934224D01432934224D0143293425B
:1014580024D01432934224D01432934224D002F57B
:101468006272934223D01432934222D014329342B0
:1014780021D01432934202D04FF4802203E04FF47B
:10148800804200E00422644B5A60B7E74022FAE742
:101498004FF48062F7E74FF48042F4E74FF480227C
:1014A800F1E74FF48002EEE74FF08062EBE70422A9
:1014B800E9E74022E7E74FF48062E4E702238B4044
:1014C800134200F0AB8015F0020F00F0A7802368EC
:1014D80013F0200F06D1236823F00A0323600123A9
:1014E80080F821300368494A93424BD9783A9342AD
:1014F80024D0143293422DD0143293422CD014327B
:1015080093422CD0143293422CD0143293422CD0D4
:10151800143293422CD002F5627293422BD01432CB
:1015280093422AD01432934229D01432934202D0E3
:101538004FF4003203E04FF4005200E00222344B33
:101548005A60002380F82030836A002B3FF459AF9B
:10155800984756E72022F2E74FF40072EFE74FF47E
:101568000052ECE74FF40032E9E74FF40012E6E7E7
:101578004FF00072E3E70222E1E72022DFE74FF4B1
:101588000072DCE7234A934224D01432934225D0D8
:101598001432934224D01432934224D0143293420A
:1015A80024D01432934224D01432934224D002F52A
:1015B8006272934223D01432934222D0143293425F
:1015C80021D01432934202D04FF4003203E04FF49A
:1015D800005200E00222104B5A60B2E72022FAE7DC
:1015E8004FF40072F7E74FF40052F4E74FF400327B
:1015F800F1E74FF40012EEE74FF00072EBE702223A
:10160800E9E72022E7E74FF40072E4E780000240B0
:10161800000402400800024000000240082303FAC8
:1016280001F111423FF4EDAE15F0080F3FF4E9AEB9
:10163800236823F00E032360026CC16B012303FAB5
:1016480002F24A60836380F82130002380F820305A
:10165800036B002B3FF4D5AE9847D2E670B582B045
:101668000024A446B0E0874DAA4210D007D9864D81
:10167800AA420CD005F58035AA4208D013E0A5F59A
:101688008015AA4203D005F57025AA4207D18A68B9
:10169800002A62D0012A5BD04361082403E0A5F543
:1016A8008015AA42F3D0BEF1FF0F58D80646BEF106
:1016B800FF0F56D84FEA8C0233680F25954023EA6E
:1016C800050304FA02F2134333604B6813F0805F9A
:1016D80078D06E4B9A6942F001029A619B6903F0D7
:1016E80001030193019B4FEA9C02951C684B53F838
:1016F80025600CF003039D000F23AB4026EA030688
:10170800644B984233D003F58063984200F0988088
:1017180003F58063984200F0958003F58063984252
:1017280000F0928003F58063984200F08F8003F503
:101738008063984219D006231AE0CC68B3E7CC68D6
:101748000434B0E7CC680834ADE7CC680C34AAE7B9
:1017580003610824A7E70024A5E70424A3E7061DDE
:10176800A5E7ACF108029200A6E7052300E00023F4
:10177800AB4033430232464D45F822304B6813F4F0
:10178800803F65D0444A136843EA0E0313604B68F0
:1017980013F4003F62D0404A536843EA0E03536093
:1017A8004B6813F4801F5FD03B4A936843EA0E03EB
:1017B80093604B6813F4001F5CD0374AD36843EA40
:1017C8000E03D3600CF1010C0A6832FA0CF357D0FF
:1017D800012303FA0CF302EA030E33EA0202F1D101
:1017E8004A68122A3FF63FAF122A3FF65CAF01A5BE
:1017F80055F822F097160008431700084D170008FF
:101808005F170008AF160008AF160008AF160008EB
:10181800AF160008AF160008AF160008AF1600088C
:10182800AF160008AF160008AF160008AF1600087C
:10183800AF160008AF16000847170008531700082E
:10184800012395E7022393E7032391E704238FE716
:10185800114A136823EA0E03136098E70E4A536887
:1018680023EA0E0353609BE70B4A936823EA0E03AF
:1018780093609EE7084AD36823EA0E03D360A1E782
:1018880002B070BD000022100000311000100240AC
:101898000000014000080140000401400AB1016154
:1018A80070470904016170477047000008B5054B8F
:1018B8005B69034200D108BD024B5861FFF7F4FF92
:1018C800F9E700BF0004014082B0084B1B68084AD2
:1018D800A2FB03235B0A00FB03F3019300BF019BF8
:1018E8005A1E0192002BF9D102B070474400002023
:1018F800D34D6210002800F0F18170B582B0044623
:10190800036813F0010F2CD0994B5B6803F00C03AC
:10191800042B1DD0964B5B6803F00C03082B12D0E8
:101928006368B3F5803F41D0002B55D103F1804364
:1019380003F504331A6822F480321A601A6822F414
:1019480080221A6037E08A4B5B6813F4803FE7D047
:10195800874B1B6813F4003F03D06368002B00F02B
:10196800BF81236813F0020F75D0814B5B6813F0B9
:101978000C0F5FD07E4B5B6803F00C03082B54D030
:101988002369002B00F08A807A4B01221A60FFF746
:1019980019FB0546764B1B6813F0020F75D1FFF74C
:1019A80011FB401B0228F5D903209EE1704A1368F9
:1019B80043F480331360636843B3FFF703FB0546C2
:1019C8006B4B1B6813F4003FCBD1FFF7FBFA401BAE
:1019D8006428F5D9032088E1B3F5A02F09D0644B1A
:1019E8001A6822F480321A601A6822F480221A6077
:1019F800E1E703F18043A3F53C331A6842F48022FF
:101A08001A601A6842F480321A60D4E7FFF7DAFAEB
:101A18000546574B1B6813F4003FA2D0FFF7D2FAD4
:101A2800401B6428F5D903205FE1514B5B6813F430
:101A3800803FA5D14E4B1B6813F0020F03D02369DA
:101A4800012B40F04F814A4A136823F0F80361697B
:101A580043EAC1031360236813F0080F33D0A36966
:101A6800002B5CD0434B0122C3F88024FFF7AAFA6D
:101A780005463F4B5B6A13F0020F21D1FFF7A2FA2C
:101A8800401B0228F5D903202FE1394A136823F0B7
:101A9800F803616943EAC1031360DCE7354B0022B0
:101AA8001A60FFF78FFA0546314B1B6813F0020FD7
:101AB800D1D0FFF787FA401B0228F5D9032014E19B
:101AC8000120FFF701FF236813F0040F00F0968050
:101AD800274BDB6913F0805F34D1254BDA6942F07C
:101AE8008052DA61DB6903F080530193019B012581
:101AF800214B1B6813F4807F26D0E368012B3DD06F
:101B0800002B53D103F1804303F504331A6A22F002
:101B180001021A621A6A22F004021A6233E0154BB3
:101B28000022C3F88024FFF74DFA0546104B5B6A84
:101B380013F0020FC7D0FFF745FA401B0228F5D96A
:101B48000320D2E00025D3E70B4A136843F48073DF
:101B58001360FFF737FA0646074B1B6813F4807FBC
:101B6800CBD1FFF72FFA801B6428F5D90320BCE0FE
:101B78000010024000004242007000405F4A136AB1
:101B880043F001031362E36833B3FFF71BFA064619
:101B98005A4B1B6A13F0020F2FD1FFF713FA801B61
:101BA80041F288339842F3D903209EE0052B09D0EF
:101BB800524B1A6A22F001021A621A6A22F00402CF
:101BC8001A62E0E74D4B1A6A42F004021A621A6A76
:101BD80042F001021A62D6E7FFF7F4F90646474BCE
:101BE8001B6A13F0020F08D0FFF7ECF9801B41F2D3
:101BF80088339842F3D9032077E0E5B9E369002BED
:101C080072D03E4A526802F00C02082A56D0022BC3
:101C180017D03B4B00221A66FFF7D4F90446374B1E
:101C28001B6813F0007F47D0FFF7CCF9001B022890
:101C3800F5D9032059E0314AD36923F08053D361A1
:101C4800DCE72F4B00221A66FFF7BCF905462B4B41
:101C58001B6813F0007F06D0FFF7B4F9401B022879
:101C6800F5D9032041E0236AB3F5803F1AD0234910
:101C78004B6823F47413226A606A024313434B606F
:101C88001F4B01221A66FFF79DF904461B4B1B6880
:101C980013F0007F0ED1FFF795F9001B0228F5D944
:101CA800032022E0154A536823F40033A1680B434C
:101CB8005360DCE7002018E0002016E0012B16D066
:101CC8000E4B5B6803F48031226A914211D103F410
:101CD8007013626A93420ED1002006E0012070471B
:101CE800012002E0012000E0002002B070BD0120C8
:101CF800FBE70120F9E70120F7E700BF00100240E9
:101D08000000424286B0174B0FCB0DF1180C0CE9BE
:101D18000F0040F20123ADF80430134B5B6803F069
:101D28000C02082A02D0114806B07047C3F3834258
:101D380018326A4412F8100C13F4803F0DD00A4B85
:101D48005B68C3F3404318336B4413F8143C074AE9
:101D580002FB00F0B0FBF3F0E6E7054B03FB00F0F5
:101D6800E2E700BFE84501080010024000127A00CF
:101D780000093D00002800F0A08070B50D4604461B
:101D8800524B1B6803F007038B420BD24F4A136870
:101D980023F007030B431360136803F007038B4218
:101DA80040F08D80236813F0020F17D013F0040F52
:101DB80004D0474A536843F4E0635360236813F040
:101DC800080F04D0424A536843F460535360404AB2
:101DD800536823F0F003A1680B435360236813F0A2
:101DE800010F31D06368012B20D0022B25D0384A4F
:101DF800126812F0020F64D035494A6822F00302D3
:101E080013434B60FFF7DEF80646314B5B6803F07F
:101E18000C036268B3EB820F16D0FFF7D3F8801B70
:101E280041F288339842F0D9032045E0284A1268E5
:101E380012F4003FE0D101203EE0254A126812F07A
:101E4800007FD9D1012037E0204B1B6803F007033E
:101E5800AB420AD91D4A136823F007032B431360CA
:101E6800136803F00703AB422DD1236813F0040F66
:101E780006D0174A536823F4E063E1680B435360C4
:101E8800236813F0080F07D0114A536823F46053EE
:101E9800216943EAC1035360FFF734FF0C4B5B68C9
:101EA800C3F303130B4AD35CD8400B4B18600B4B9E
:101EB8001868FFF743F8002070BD01207047012023
:101EC800FAE70120F8E70120F6E700BF002002400A
:101ED800001002405C460108440000200400002075
:101EE800014B1868704700BF4400002008B5FFF791
:101EF800F7FF044B5B68C3F30223034AD35CD84063
:101F080008BD00BF001002406C46010808B5FFF785
:101F1800E7FF044B5B68C3F3C223034AD35CD84092
:101F280008BD00BF001002406C46010830B4036AC7
:101F380023F001030362036A4268846924F073048E
:101F48000D682C4323F0020C8B6843EA0C03104DF8
:101F5800A84203D005F50065A84205D123F008037F
:101F6800CD682B4323F00403094DA84203D005F59F
:101F78000065A84205D122F440724D692A438D6953
:101F88002A43426084614A684263036230BC7047F6
:101F9800002C014030B4036A23F480730362036A9F
:101FA8004268C46924F0730C0C6844EA0C0523F4F5
:101FB80000738C6843EA0423114CA04203D004F553
:101FC8000064A04206D123F40063CC6843EA0423EA
:101FD80023F480630A4CA04203D004F50064A042B5
:101FE80007D122F440524C6942EA04128C6942EA51
:101FF80004124260C5614A68C263036230BC70471C
:10200800002C014030B4036A23F480530362036A4E
:102018004468C26922F4E6420D6842EA052223F4C4
:1020280000538D6843EA0533094DA84203D005F5EE
:102038000065A84204D124F480444D6944EA85141B
:102048004460C2614A680264036230BC704700BFE2
:10205800002C014010B4036A046A24F001040462ED
:10206800846924F0F00C4CEA021223F00A030B43B3
:102078008261036210BC704710B4046A24F0100433
:1020880004628469036A24F4704C4CEA023223F037
:10209800A00343EA01138261036210BC704783689E
:1020A80023F070030B4343F0070383607047026813
:1020B800D36843F00103D3600268936803F0070311
:1020C800062B03D0136843F0010313600020704708
:1020D80070477047704770477047704710B504469F
:1020E80003681A6912F0020F11D0DA6812F0020FB1
:1020F8000DD06FF002021A610123037703689B6910
:1021080013F0030F70D0FFF7E6FF0023237723684F
:102118001A6912F0040F12D0DA6812F0040F0ED008
:102128006FF004021A610223237723689B6913F472
:10213800407F5FD02046FFF7CEFF00232377236838
:102148001A6912F0080F12D0DA6812F0080F0ED0D0
:102158006FF008021A61042323772368DB6913F000
:10216800030F4ED02046FFF7B6FF002323772368DE
:102178001A6912F0100F12D0DA6812F0100F0ED090
:102188006FF010021A61082323772368DB6913F4C0
:10219800407F3DD02046FFF79EFF0023237723682A
:1021A8001A6912F0010F03D0DA6812F0010F36D164
:1021B80023681A6912F0800F03D0DA6812F0800FD2
:1021C80034D123681A6912F0400F03D0DA6812F08C
:1021D800400F32D123681A6912F0200F03D0DA6851
:1021E80012F0200F30D110BDFFF774FF2046FFF723
:1021F80073FF8AE72046FFF76DFF2046FFF76CFF65
:102208009BE72046FFF766FF2046FFF765FFACE730
:102218002046FFF75FFF2046FFF75EFFBDE76FF040
:1022280001021A612046FFF754FFC1E76FF08002F0
:102238001A61204600F037FAC3E76FF040021A61CE
:102248002046FFF74AFFC5E76FF020021A612046D3
:1022580000F028FAC7E700000368244A904212D029
:1022680002F5006290420ED0B0F1804F0BD0A2F57B
:102278009832904207D002F58062904203D002F56E
:102288008062904203D123F070034A681343174ACF
:10229800904212D002F5006290420ED0B0F1804F09
:1022A8000BD0A2F59832904207D002F58062904296
:1022B80003D002F58062904203D123F44073CA68C8
:1022C800134323F080034A69134303608B68C36296
:1022D8000B688362054B984203D003F5006398426C
:1022E80001D10B690363012343617047002C01404E
:1022F800B0B110B5044690F83D3063B1022384F8BC
:102308003D30214651F8040BFFF7A6FF012384F85E
:102318003D30002010BD80F83C300BF019FFEDE790
:1023280001207047B0B110B5044690F83D3063B154
:10233800022384F83D30214651F8040BFFF78CFF47
:10234800012384F83D30002010BD80F83C30FFF7B1
:10235800BFFEEDE70120704730B4036A23F0100395
:102368000362036A4468826922F4E6420D6842EA1D
:10237800052223F020038D6843EA0513114DA84276
:1023880003D005F50065A84206D123F08003CD6887
:1023980043EA051323F040030A4DA84203D005F58C
:1023A8000065A84207D124F440644D6944EA8504D5
:1023B8008D6944EA8504446082614A6882630362E5
:1023C80030BC7047002C014038B590F83C30012BE8
:1023D80066D004460D46012380F83C30022380F87D
:1023E8003D300C2A1AD8DFE802F00719191920190C
:1023F80019193419191947000068FFF797FD226861
:10240800936943F0080393612268936923F00403F6
:1024180093612268936929690B439361012384F8C6
:102428003D30002084F83C0038BD0068FFF794FF79
:102438002268936943F4006393612268936923F4E3
:102448008063936122689369296943EA0123936150
:10245800E4E70068FFF79EFD2268D36943F00803AC
:10246800D3612268D36923F00403D3612268D36956
:1024780029690B43D361D1E70068FFF7C3FD2268E0
:10248800D36943F40063D3612268D36923F480637A
:10249800D3612268D369296943EA0123D361BDE77F
:1024A8000220C1E710B4846824F47F4C42EA032276
:1024B8000A4342EA0C02826010BC704790F83C3034
:1024C800012B66D010B50446012380F83C30022366
:1024D80080F83D300268936823F47F4323F0770344
:1024E80093600B68602B40D022D8402B47D00BD983
:1024F800502B0ED1CA6849680068FFF7ABFD502120
:102508002068FFF7CCFD04E0202B0CD008D9302B35
:1025180009D0012384F83D30002084F83C0010BD28
:102528000BB1102BF5D119462068FFF7B8FDF0E77D
:10253800702B0ED0B3F5005FEBD1CB684A68896881
:102548000068FFF7AFFF2268936843F48043936005
:10255800DFE7CB684A6889680068FFF7A3FF22684D
:10256800936843F077039360D3E7CA6849680068C3
:10257800FFF782FD60212068FFF791FDC9E7CA686F
:1025880049680068FFF766FD40212068FFF787FD6E
:10259800BFE70220704701F01F01012303FA01FC85
:1025A800036A23EA0C030362036A02FA01F10B438C
:1025B8000362704710B5044601220068FFF7EBFF7D
:1025C80023680B4A934203D002F50062934203D179
:1025D8005A6C42F400425A642268936803F0070375
:1025E800062B03D0136843F001031360002010BDCD
:1025F800002C014010B5044600220068FFF7CBFF0D
:102608002368154A934217D002F50062934213D00B
:102618002368196A41F21112114208D1196A40F26D
:102628004442114203D11A6822F001021A600123C0
:1026380084F83D30002010BD196A41F21112114290
:10264800E6D1196A40F244421142E1D15A6C22F4AF
:1026580000425A64DCE700BF002C014090F83C308F
:10266800012B1DD030B54FF0010E80F83CE002235D
:1026780080F83D3002685468936824F070040D684F
:102688002C4323F0800C4B6843EA0C035460026827
:10269800936080F83DE0002380F83C30184630BD58
:1026A80002207047704770470268D36823F0C00360
:1026B800D360202380F8393070470268D36823F448
:1026C8009073D3600268536923F001035361202398
:1026D80080F83A30704790F83930DBB2212B01D0BE
:1026E800022070478368B3F5805F17D0036A5A1CCD
:1026F80002621A7803685A60C38C9BB2013B9BB292
:10270800C3844BB90268D36823F08003D36002689E
:10271800D36843F04003D36000207047036A1B88E6
:102728000268C3F30803536003691BB9036A0233E1
:102738000362E1E7036A01330362DDE738B5044663
:102748000268136923F44053C1680B43136183681B
:102758000269134342691A430168CB6823F4B053F2
:1027680023F00C031343CB600268536923F44073CE
:1027780081690B4353610268214B9A421FD0FFF7CE
:10278800B5FB00EB800202EB820263689B00B2FBA0
:10279800F3F21C48A0FB02314909642303FB11230F
:1027A8001B013233A0FB03235B0903F0F00202EBA9
:1027B800011203F00F03216813448B6038BDFFF743
:1027C800A5FB00EB800000EB800063689B00B0FB7A
:1027D800F3F00C4DA5FB00325109642303FB1103F0
:1027E8001B013233A5FB03235B0903F0F00202EB64
:1027F800011203F00F03216813448B60DEE700BF6A
:10280800003801401F85EB5158B310B5044690F8C5
:1028180039300BB3242384F839302268D36823F481
:102828000053D3602046FFF789FF2268136923F419
:10283800904313612268536923F02A035361226885
:10284800D36843F40053D3600020E063202384F866
:10285800393084F83A3010BD80F838300BF0A2FDDA
:10286800D8E701207047000038B590F83930DBB25E
:10287800202B31D10446002930D0002A30D090F8DE
:102888003830012B2ED0012380F838300162828441
:10289800C2840025C563212380F83930036B1248B0
:1028A8009862236B1148D862236B11481863236B15
:1028B8005D6320681346021D206BFEF76BFC2368DE
:1028C8006FF040021A6084F838502268536943F068
:1028D80080035361284600E0022038BD0120FCE750
:1028E8000120FAE70220F8E7A7290008F3290008E1
:1028F800E92A000830B583B0044690F83A00C0B21F
:1029080020283CD100293DD0002A3DD094F8383009
:10291800012B3BD0012384F83830A162A285002521
:10292800E563222384F83A30636B19489862636B35
:102938001848D862636B18481863636B5D63206836
:1029480013460A46011D606BFEF724FC01952368B7
:102958001A6801925A680192019A84F83850DA6824
:1029680042F48072DA602268536943F001035361CC
:102978002268536943F040035361284600E002206F
:1029880003B030BD0120FBE70120F9E70220F7E79B
:10299800FF290008DD2A0008E92A0008704708B561
:1029A8000346406A1B681B6813F0200F0CD10023F4
:1029B800C3840268536923F0800353610268D368B3
:1029C80043F04003D36008BDFFF7E8FFFBE708B515
:1029D8000168CA6822F04002CA60202280F83920C3
:1029E800FFF7DCFF002008BD704708B5406AFFF715
:1029F800FBFF08BD704708B50346406A1B681B68A3
:102A080013F0200F13D10023C3850268D36823F481
:102A18008073D3600268536923F00103536102682D
:102A2800536923F040035361202380F83A30FFF7BD
:102A3800E1FF08BD08B590F83A30DBB2222B46D149
:102A48008368B3F5805F0FD003690BBB03685A68CE
:102A5800836A591C81621A70C38D9BB2013B9BB279
:102A6800C385F3B1002008BD826A036943B90368CE
:102A78005B68C3F308031380836A02338362EBE75E
:102A880003685B68DBB21380836A01338362E3E720
:102A980003685B68826A511C816203F07F031370CC
:102AA800DAE70268D36823F02003D3600268D368AA
:102AB80023F48073D3600268536923F001035361E0
:102AC800202380F83A30FFF795FF0020CBE702205B
:102AD800C9E7704708B5406AFFF7FBFF08BD7047B4
:102AE80010B5446A23685A6994F83930DBB2212B4F
:102AF80010D023685A6902F0400294F83A30DBB2E9
:102B0800222B11D0E36B43F01003E3632046FFF759
:102B1800E6FF10BD02F08002002AEAD00023E38419
:102B28002046FFF7C1FDE4E7002AEBD00023E38548
:102B38002046FFF7C2FDE5E710B5044602681368B2
:102B4800D168526913F00F0005D113F0200F02D09D
:102B580011F0200F13D128B112F0010213D111F492
:102B6800907F10D113F0800F02D011F0800F69D13F
:102B780013F0400F02D011F0400F67D110BD20466E
:102B8800FFF758FFFAE713F0010F06D011F4807F22
:102B980003D0E06B40F00100E06313F0040F04D0B1
:102BA8001AB1E06B40F00200E06313F0020F04D0AA
:102BB8001AB1E06B40F00400E06313F0080F04D092
:102BC8001AB1E26B42F00802E263E26B002AD5D048
:102BD80013F0200F02D011F0200F21D123685B6978
:102BE80003F04003E26B12F0080F00D123B3204634
:102BF800FFF763FD23685A6912F0400F18D05A692D
:102C080022F040025A61636B73B1124A5A63606BD7
:102C1800FEF7FAFA0028B1D0606B436B9847ADE72E
:102C28002046FFF707FFD9E72046FFF758FFA5E73B
:102C38002046FFF754FFA1E72046FFF750FF002387
:102C4800E3639BE72046FFF746FD97E72046FFF73B
:102C5800BEFE93E7612C000808B5406A0023C385CF
:102C6800C384FFF73CFF08BDCB4341EA0341016140
:102C78007047C06880B2704710B50E4C01224FF4FF
:102C880080612046FEF70AFE01200BF007FB0022B8
:102C98004FF480612046FEF701FE14200BF0FEFA87
:102CA80001224FF480612046FEF7F8FD14200BF056
:102CB800F5FA10BD000C014038B50546B74C0022A6
:102CC80002212046FEF7EAFD00224FF480712046DB
:102CD800FEF7E4FD2046FFF7CCFFC0F30A012046CB
:102CE800FFF7C2FF002208212046FEF7D7FD012288
:102CF80010212046FEF7D2FD002210212046FEF7C3
:102D0800CDFD002208212046FEF7C8FD0122102132
:102D18002046FEF7C3FD002210212046FEF7BEFD27
:102D2800002208212046FEF7B9FD01221021204685
:102D3800FEF7B4FD002210212046FEF7AFFD002269
:102D480008212046FEF7AAFD012210212046FEF7A1
:102D5800A5FD002210212046FEF7A0FD0022082133
:102D68002046FEF79BFD012210212046FEF796FD26
:102D7800002210212046FEF791FD0022082120465E
:102D8800FEF78CFD012210212046FEF787FD002268
:102D980010212046FEF782FD002208212046FEF77A
:102DA8007DFD012210212046FEF778FD002210212A
:102DB8002046FEF773FD002208212046FEF76EFD2F
:102DC800012210212046FEF769FD0022102120462D
:102DD800FEF764FDEB0900F0B180012208212046CE
:102DE800FEF75CFD6D4C012210212046FEF756FDD2
:102DF800002210212046FEF751FD15F0400F00F08B
:102E0800A380012208212046FEF748FD634C0122D9
:102E180010212046FEF742FD002210212046FEF731
:102E28003DFD15F0200F00F0958001220821204675
:102E3800FEF734FD594C012210212046FEF72EFDE5
:102E4800002210212046FEF729FD15F0100F00F092
:102E58008780012208212046FEF720FD4F4C0122E1
:102E680010212046FEF71AFD002210212046FEF709
:102E780015FD15F0080F79D0012208212046FEF72C
:102E88000DFD464C012210212046FEF707FD0022C9
:102E980010212046FEF702FD15F0040F6CD0012228
:102EA80008212046FEF7FAFC3C4C0122102120465E
:102EB800FEF7F4FC002210212046FEF7EFFC15F087
:102EC800020F5FD0012208212046FEF7E7FC334CB1
:102ED800012210212046FEF7E1FC002210212046A5
:102EE800FEF7DCFC15F0010F52D001220821204624
:102EF800FEF7D4FC294C012210212046FEF7CEFC17
:102F0800002210212046FEF7C9FC01224FF400617F
:102F18002046FEF7C3FC00224FF400712046FEF75E
:102F2800BDFC01224FF400712046FEF7B7FC0122D8
:102F38004FF480712046FEF7B1FC38BD002208210D
:102F48001648FEF7ABFC4DE7002208211348FEF7B0
:102F5800A5FC5BE7002208211048FEF79FFC69E703
:102F6800002208210D48FEF799FC77E70022082186
:102F78000A48FEF793FC84E7002208210748FEF779
:102F88008DFC91E7002208210448FEF787FC9EE7A4
:102F9800002208210148FEF781FCABE7000C014044
:102FA80038B50C46FFF788FEDD4D01220221284680
:102FB800FEF774FC00224FF480712846FEF76EFC81
:102FC8002846FFF756FEC0F30A012846FFF74CFED5
:102FD80014F4004F40F0558100220821D048FEF734
:102FE8005DFCCF4D012210212846FEF757FC002238
:102FF80010212846FEF752FC14F4804F00F0478158
:10300800012208212846FEF749FCC54D012210215E
:103018002846FEF743FC002210212846FEF73EFC16
:1030280014F4005F00F03981012208212846FEF7D8
:1030380035FCBB4D012210212846FEF72FFC00224B
:1030480010212846FEF72AFC14F4805F00F02B813B
:10305800012208212846FEF721FCB14D012210214A
:103068002846FEF71BFC002210212846FEF716FC16
:1030780014F4006F00F01D81012208212846FEF794
:103088000DFCA74D012210212846FEF707FC00225F
:1030980010212846FEF702FC14F4806F00F00F811F
:1030A800012208212846FEF7F9FB9D4D0122102137
:1030B8002846FEF7F3FB002210212846FEF7EEFB18
:1030C80014F4007F00F00181012208212846FEF750
:1030D800E5FB934D012210212846FEF7DFFB002275
:1030E80010212846FEF7DAFB14F4807F00F0F38005
:1030F800012208212846FEF7D1FB894D0122102123
:103108002846FEF7CBFB002210212846FEF7C6FB17
:1031180014F0800F00F0E580012208212846FEF710
:10312800BDFB7F4D012210212846FEF7B7FB002288
:1031380010212846FEF7B2FB14F0400F00F0D780AC
:10314800012208212846FEF7A9FB754D012210210E
:103158002846FEF7A3FB002210212846FEF79EFB17
:1031680014F0200F00F0C980012208212846FEF73C
:1031780095FB6B4D012210212846FEF78FFB00229C
:1031880010212846FEF78AFB14F0100F00F0BB80D0
:10319800012208212846FEF781FB614D01221021FA
:1031A8002846FEF77BFB002210212846FEF776FB17
:1031B80014F0080F00F0AD80012208212846FEF720
:1031C8006DFB574D012210212846FEF767FB0022B0
:1031D80010212846FEF762FB14F0040F00F0A280CD
:1031E800012208212846FEF759FB4D4D01221021E6
:1031F8002846FEF753FB002210212846FEF74EFB17
:1032080014F0020F00F09480012208212846FEF7EE
:1032180045FB434D012210212846FEF73FFB0022C3
:1032280010212846FEF73AFB14F0010F00F08680C3
:10323800012208212846FEF731FB394C01221021D2
:103248002046FEF72BFB002210212046FEF726FB26
:1032580001224FF400612046FEF720FB00224FF4C4
:1032680000712046FEF71AFB01224FF40071204638
:10327800FEF714FB01224FF480712046FEF70EFB87
:1032880038BD012208212846FEF708FBA9E60022DE
:1032980008212348FEF702FBB7E600220821204850
:1032A800FEF7FCFAC5E6002208211D48FEF7F6FAEB
:1032B800D3E6002208211A48FEF7F0FAE1E60022D8
:1032C80008211748FEF7EAFAEFE600220821144819
:1032D800FEF7E4FAFDE6002208211148FEF7DEFABF
:1032E8000BE7002208210E48FEF7D8FA19E700225A
:1032F80008210B48FEF7D2FA27E7002208210848E0
:10330800FEF7CCFA35E7002208210548FEF7C6FA91
:1033180043E7002208210248FEF7C0FA51E700BF40
:10332800000C0140002208210748FEF7B7FA5CE7C5
:10333800002208210448FEF7B1FA6AE700220821B2
:103348000148FEF7ABFA78E7000C014008B52C20DD
:10335800FFF7B2FC08BD00002DE9F04F85B0064626
:103368000C46154698462A20FFF7A6FCEC4F01228A
:1033780002213846FEF792FA00224FF4807138464F
:10338800FEF78CFA3846FFF774FCC0F30A0138469A
:10339800FFF76AFC002208213846FEF77FFA01226F
:1033A80010213846FEF77AFA002210213846FEF737
:1033B80075FA002208213846FEF770FA012210211A
:1033C8003846FEF76BFA002210213846FEF766FAF7
:1033D800002208213846FEF761FA012210213846FA
:1033E800FEF75CFA002210213846FEF757FA002251
:1033F80008213846FEF752FA012210213846FEF716
:103408004DFA002210213846FEF748FA002208211A
:103418003846FEF743FA012210213846FEF73EFAF5
:10342800002210213846FEF739FA002208213846D2
:10343800FEF734FA012210213846FEF72FFA00224F
:1034480010213846FEF72AFA002208213846FEF7EE
:1034580025FA012210213846FEF720FA0022102111
:103468003846FEF71BFA002208213846FEF716FAFE
:10347800012210213846FEF711FA002210213846A1
:10348800FEF70CFAF30B01F07C8201220821384682
:10349800FEF704FAA24F012210213846FEF7FEF982
:1034A800002210213846FEF7F9F9C6F3803A16F4DF
:1034B800804F01F06D82012208213846FEF7EEF9AF
:1034C800974F012210213846FEF7E8F90022102113
:1034D8003846FEF7E3F9C6F3403916F4005F01F009
:1034E8005E82012208213846FEF7D8F98C4F012266
:1034F80010213846FEF7D2F9002210213846FEF78F
:10350800CDF9C6F30033009316F4805F01F04E82C4
:10351800012208213846FEF7C1F9814F0122102106
:103528003846FEF7BBF9002210213846FEF7B6F9F7
:10353800C6F3C023019316F4006F01F03E82012206
:1035480008213846FEF7AAF9754F0122102138469E
:10355800FEF7A4F9002210213846FEF79FF9C6F3BA
:103568008023029316F4806F01F02E820122082135
:103578003846FEF793F96A4F012210213846FEF7C4
:103588008DF9002210213846FEF788F9C6F3402B42
:1035980016F4007F01F01F82012208213846FEF749
:1035A8007DF95F4F012210213846FEF777F9002296
:1035B80010213846FEF772F9C6F30023039316F478
:1035C800807F01F00F82012208213846FEF766F954
:1035D800534F012210213846FEF760F900221021CE
:1035E8003846FEF75BF901224FF400613846FEF7D2
:1035F80055F900224FF400713846FEF74FF90122C1
:103608004FF400713846FEF749F901224FF48071F2
:103618003846FEF743F9012202213846FEF73EF903
:1036280000224FF480713846FEF738F93846FFF724
:1036380020FBC0F30A013846FFF716FB16F4004FCB
:1036480041F0D781002208213548FEF727F9344F89
:10365800012210213846FEF721F9002210213846B0
:10366800FEF71CF9BAF1000F01F0CA810122082106
:103678003846FEF713F92A4F012210213846FEF783
:103688000DF9002210213846FEF708F9B9F1000FAC
:1036980001F0BD81012208213846FEF7FFF8204FCE
:1036A800012210213846FEF7F9F800221021384689
:1036B800FEF7F4F8009B002B01F0B08101220821ED
:1036C8003846FEF7EBF8164F012210213846FEF770
:1036D800E5F8002210213846FEF7E0F8019B002BA0
:1036E80001F0A381012208213846FEF7D7F80C4FD4
:1036F800012210213846FEF7D1F800221021384661
:10370800FEF7CCF8029B002B01F0968101220821DC
:103718003846FEF7C3F8024F0122102102E000BF2D
:10372800000C01403846FEF7B9F80022102138464F
:10373800FEF7B4F8BBF1000F01F0858101220821E2
:103748003846FEF7ABF8ED4F012210213846FEF758
:10375800A5F8002210213846FEF7A0F8039B002B9D
:1037680001F07881012208213846FEF797F8E34FE7
:10377800012210213846FEF791F800221021384620
:10378800FEF78CF816F0800F01F06B8101220821FA
:103798003846FEF783F8D94F012210213846FEF744
:1037A8007DF8002210213846FEF778F816F0400F11
:1037B80001F05E81012208213846FEF76FF8CF4FED
:1037C800012210213846FEF769F8002210213846F8
:1037D800FEF764F816F0200F01F05181012208214C
:1037E8003846FEF75BF8C54F012210213846FEF730
:1037F80055F8002210213846FEF750F816F0100F41
:1038080001F04481012208213846FEF747F8BB4FF2
:10381800012210213846FEF741F8002210213846CF
:10382800FEF73CF816F0080F01F037810122082155
:103838003846FEF733F8B14F012210213846FEF71B
:103848002DF8002210213846FEF728F816F0040F4C
:1038580001F02A81012208213846FEF71FF8A74FF8
:10386800012210213846FEF719F8002210213846A7
:10387800FEF714F816F0020F01F01D81012208214D
:103888003846FEF70BF89D4F012210213846FEF707
:1038980005F8002210213846FEF700F816F0010F4F
:1038A80001F01281012208213846FDF7F7FF934EF7
:1038B800012210213046FDF7F1FF00221021304689
:1038C800FDF7ECFF01224FF400613046FDF7E6FFFB
:1038D80000224FF400713046FDF7E0FF01224FF45B
:1038E80000713046FDF7DAFF01224FF4807130464F
:1038F800FDF7D4FF012202213046FDF7CFFF002259
:103908004FF480713046FDF7C9FF3046FFF7B1F933
:10391800C0F30A013046FFF7A7F900220821304614
:10392800FDF7BCFF012210213046FDF7B7FF00224A
:1039380010213046FDF7B2FF002208213046FDF77E
:10394800ADFF012210213046FDF7A8FF002210210B
:103958003046FDF7A3FF002208213046FDF79EFF01
:10396800012210213046FDF799FF00221021304630
:10397800FDF794FF002208213046FDF78FFF012252
:1039880010213046FDF78AFF002210213046FDF74E
:1039980085FF002208213046FDF780FF0122102113
:1039A8003046FDF77BFF002210213046FDF776FFF9
:1039B800002208213046FDF771FF01221021304610
:1039C800FDF76CFF002210213046FDF767FF00224B
:1039D80008213046FDF762FF012210213046FDF72D
:1039E8005DFF002210213046FDF758FF0022082114
:1039F8003046FDF753FF012210213046FDF74EFFF8
:103A0800002210213046FDF749FFEB0B01F06380DF
:103A1800012208213046FDF741FF384E01221021CE
:103A28003046FDF73BFF002210213046FDF736FFF8
:103A3800C5F3803A15F4804F01F054800122082123
:103A48003046FDF72BFF2D4E012210213046FDF7A1
:103A580025FF002210213046FDF720FFC5F340392D
:103A680015F4005F01F04580012208213046FDF77A
:103A780015FF224E012210213046FDF70FFF0022CC
:103A880010213046FDF70AFFC5F30033009315F403
:103A9800805F01F03580012208213046FDF7FEFEE7
:103AA800164E012210213046FDF7F8FE00221021A3
:103AB8003046FDF7F3FEC5F3C02B15F4006F01F097
:103AC8002680012208213046FDF7E8FE0B4E012230
:103AD80010213046FDF7E2FE002210213046FDF7A6
:103AE800DDFEC5F38023019315F4806F01F0168085
:103AF800012208213046FDF7D1FE01E0000C01400B
:103B0800EA4E012210213046FDF7C8FE002210219E
:103B18003046FDF7C3FEC5F34023029315F4007F3A
:103B280001F00380012208213046FDF7B7FEDF4E81
:103B3800012210213046FDF7B1FE00221021304647
:103B4800FDF7ACFEC5F3002715F4807F00F0F4877D
:103B5800012208213046FDF7A1FED44E0122102192
:103B68003046FDF79BFE002210213046FDF796FEF9
:103B780001224FF400613046FDF790FE00224FF419
:103B880000713046FDF78AFE01224FF4007130467D
:103B9800FDF784FE01224FF480713046FDF77EFE6A
:103BA800012202213046FDF779FE00224FF4807190
:103BB8003046FDF773FE3046FFF75BF8C0F30A01A5
:103BC8003046FFF751F815F4004F40F0BC8700224B
:103BD8000821B648FDF762FEB44E01221021304696
:103BE800FDF75CFE002210213046FDF757FEBAF1C2
:103BF800000F00F0AF87012208213046FDF74EFE86
:103C0800AA4E012210213046FDF748FE002210215D
:103C18003046FDF743FEB9F1000F00F0A2870122FC
:103C280008213046FDF73AFEA04E01221021304609
:103C3800FDF734FE002210213046FDF72FFE009BD1
:103C4800002B00F09587012208213046FDF726FE5B
:103C5800964E012210213046FDF720FE0022102149
:103C68003046FDF71BFEBBF1000F00F088870122EC
:103C780008213046FDF712FE8C4E012210213046F5
:103C8800FDF70CFE002210213046FDF707FE019BD0
:103C9800002B00F07B87012208213046FDF7FEFD4E
:103CA800824E012210213046FDF7F8FD0022102136
:103CB8003046FDF7F3FD029B002B00F06E870122D2
:103CC80008213046FDF7EAFD784E012210213046E2
:103CD800FDF7E4FD002210213046FDF7DFFD002F3F
:103CE80000F06287012208213046FDF7D7FD6F4EAC
:103CF800012210213046FDF7D1FD00221021304667
:103D0800FDF7CCFD15F0800F00F055870122082142
:103D18003046FDF7C3FD654E012210213046FDF700
:103D2800BDFD002210213046FDF7B8FD15F0400F0B
:103D380000F04887012208213046FDF7AFFD5B4EB1
:103D4800012210213046FDF7A9FD0022102130463E
:103D5800FDF7A4FD15F0200F00F03B870122082194
:103D68003046FDF79BFD514E012210213046FDF7EC
:103D780095FD002210213046FDF790FD15F0100F3B
:103D880000F02E87012208213046FDF787FD474EB7
:103D9800012210213046FDF781FD00221021304616
:103DA800FDF77CFD15F0080F00F02187012208219E
:103DB8003046FDF773FD3D4E012210213046FDF7D8
:103DC8006DFD002210213046FDF768FD15F0040F47
:103DD80000F01487012208213046FDF75FFD334EBD
:103DE800012210213046FDF759FD002210213046EE
:103DF800FDF754FD15F0020F00F007870122082196
:103E08003046FDF74BFD294E012210213046FDF7C3
:103E180045FD002210213046FDF740FD15F0010F49
:103E280000F0FA86012208213046FDF737FD1F4DC4
:103E3800012210212846FDF731FD002210212846D5
:103E4800FDF72CFD01224FF400612846FDF726FD01
:103E580000224FF400712846FDF720FD01224FF49F
:103E680000712846FDF71AFD01224FF4807128469B
:103E7800FDF714FD2B20FEF71FFF01220221284623
:103E8800FDF70CFD00224FF480712846FDF706FD72
:103E98002846FEF7EEFEC0F30A012846FEF7E4FEC8
:103EA800002208212846FDF7F9FC01E0000C01403A
:103EB800012210212846FDF7F1FC00221021284696
:103EC800FDF7ECFC002208212846FDF7E7FC01225B
:103ED80010212846FDF7E2FC002210212846FDF7B4
:103EE800DDFC002208212846FDF7D8FC012210211C
:103EF8002846FDF7D3FC002210212846FDF7CEFC0A
:103F0800002208212846FDF7C9FC01221021284675
:103F1800FDF7C4FC002210212846FDF7BFFC002253
:103F280008212846FDF7BAFC012210212846FDF792
:103F3800B5FC002210212846FDF7B0FC002208211C
:103F48002846FDF7ABFC012210212846FDF7A6FC08
:103F5800002210212846FDF7A1FC0022082128464E
:103F6800FDF79CFC012210212846FDF797FC002252
:103F780010212846FDF792FC002208212846FDF76B
:103F88008DFC012210212846FDF788FC0022102113
:103F98002846FDF783FCE30B00F045860122082143
:103FA8002846FDF77BFCE94D012210212846FDF744
:103FB80075FC002210212846FDF770FCC4F3803AF6
:103FC80014F4804F00F03686012208212846FDF7B8
:103FD80065FCDE4D012210212846FDF75FFC00221A
:103FE80010212846FDF75AFCC4F3403914F4005F49
:103FF80000F02786012208212846FDF74FFCD34D03
:10400800012210212846FDF749FC002210212846EC
:10401800FDF744FCC4F30033009314F4805F00F010
:104028001786012208212846FDF738FCC74D0122D2
:1040380010212846FDF732FC002210212846FDF702
:104048002DFCC4F3C02714F4006F00F00886012289
:1040580008212846FDF722FCBC4D012210212846E4
:10406800FDF71CFC002210212846FDF717FCC4F3BD
:10407800802614F4806F00F0F98501220821284673
:10408800FDF70CFCB14D012210212846FDF706FC76
:10409800002210212846FDF701FCC4F3402B14F43C
:1040A800007F00F0EA85012208212846FDF7F6FB8B
:1040B800A64D012210212846FDF7F0FB0022102111
:1040C8002846FDF7EBFBC4F30023019314F4807F2B
:1040D80000F0DA85012208212846FDF7DFFB9B4D19
:1040E800012210212846FDF7D9FB0022102128467D
:1040F800FDF7D4FB01224FF400612846FDF7CEFB03
:1041080000224FF400712846FDF7C8FB01224FF446
:1041180000712846FDF7C2FB01224FF48071284642
:10412800FDF7BCFB012202212846FDF7B7FB002260
:104138004FF480712846FDF7B1FB2846FEF799FD3C
:10414800C0F30A012846FEF78FFD14F4004F40F033
:10415800A285002208217D48FDF7A0FB7B4D0122A6
:1041680010212846FDF79AFB002210212846FDF76A
:1041780095FBBAF1000F00F0958501220821284629
:10418800FDF78CFB714D012210212846FDF786FBB7
:10419800002210212846FDF781FBB9F1000F00F03D
:1041A8008885012208212846FDF778FB674D012202
:1041B80010212846FDF772FB002210212846FDF742
:1041C8006DFB009B002B00F07B850122082128460F
:1041D800FDF764FB5D4D012210212846FDF75EFBCB
:1041E800002210212846FDF759FB002F00F06F85AB
:1041F800012208212846FDF751FB544D01221021C8
:104208002846FDF74BFB002210212846FDF746FB08
:10421800002E00F06385012208212846FDF73EFBA9
:104228004A4D012210212846FDF738FB00221021B3
:104238002846FDF733FBBBF1000F00F0568501223D
:1042480008212846FDF72AFB404D01221021284667
:10425800FDF724FB002210212846FDF71FFB019BD8
:10426800002B00F04985012208212846FDF716FB9E
:10427800364D012210212846FDF710FB002210219F
:104288002846FDF70BFB14F0800F00F03C85012257
:1042980008212846FDF702FB2C4D01221021284653
:1042A800FDF7FCFA002210212846FDF7F7FA14F072
:1042B800400F00F02F85012208212846FDF7EEFA6D
:1042C800224D012210212846FDF7E8FA002210218C
:1042D8002846FDF7E3FA14F0200F00F022850122AA
:1042E80008212846FDF7DAFA184D01221021284640
:1042F800FDF7D4FA002210212846FDF7CFFA14F072
:10430800100F00F01585012208212846FDF7C6FA8E
:104318000E4D012210212846FDF7C0FA0022102177
:104328002846FDF7BBFA14F0080F00F008850122B3
:1043380008212846FDF7B2FA044D0122102128462B
:10434800FDF7ACFA0022102102E000BF000C01408A
:104358002846FDF7A3FA14F0040F00F0F7840122B1
:1043680008212846FDF79AFAF04D01221021284627
:10437800FDF794FA002210212846FDF78FFA14F071
:10438800020F00F0EA84012208212846FDF786FA88
:10439800E64D012210212846FDF780FA002210215F
:1043A8002846FDF77BFA14F0010F00F0DD840122A6
:1043B80008212846FDF772FADC4C0122102120461C
:1043C800FDF76CFA002210212046FDF767FA01225A
:1043D8004FF400612046FDF761FA00224FF40071A6
:1043E8002046FDF75BFA01224FF400712046FDF7E5
:1043F80055FA01224FF480712046FDF74FFA012249
:1044080002212046FDF74AFA00224FF48071204627
:10441800FDF744FA2046FEF72CFCC0F30A012046BB
:10442800FEF722FC002208212046FDF737FA012278
:1044380010212046FDF732FA002210212046FDF710
:104448002DFA002208212046FDF728FA0122102122
:104458002046FDF723FA002210212046FDF71EFA18
:10446800002208212046FDF719FA012210212046D2
:10447800FDF714FA002210212046FDF70FFA00225A
:1044880008212046FDF70AFA012210212046FDF7EF
:1044980005FA002210212046FDF700FA0022082123
:1044A8002046FDF7FBF9012210212046FDF7F6F919
:1044B800002210212046FDF7F1F9002208212046AC
:1044C800FDF7ECF9012210212046FDF7E7F900225B
:1044D80010212046FDF7E2F9002208212046FDF7C9
:1044E800DDF9012210212046FDF7D8F9002210211C
:1044F8002046FDF7D3F9002208212046FDF7CEF922
:10450800012210212046FDF7C9F90022102120467A
:10451800FDF7C4F95FEAD83300F02D8401220821A1
:104528002046FDF7BBF9814C012210212046FDF7FA
:10453800B5F9002210212046FDF7B0F9C8F3803BF9
:1045480018F4804F00F01E84012208212046FDF750
:10455800A5F9764C012210212046FDF79FF900228B
:1045680010212046FDF79AF9C8F3403A18F4005F85
:1045780000F00F84012208212046FDF78FF96B4CCB
:10458800012210212046FDF789F90022102120463A
:10459800FDF784F9C8F3003918F4805F00F000844F
:1045A800012208212046FDF779F9604C01221021EB
:1045B8002046FDF773F9002210212046FDF76EF919
:1045C800C8F3C023009318F4006F00F0F0830122B1
:1045D80008212046FDF762F9544C0122102120469B
:1045E800FDF75CF9002210212046FDF757F9C8F3C2
:1045F800802718F4806F00F0E0830122082120460C
:10460800FDF74CF9494C012210212046FDF746F9E7
:10461800002210212046FDF741F9C8F3402618F47E
:10462800007F00F0D083012208212046FDF736F9EB
:104638003E4C012210212046FDF730F900221021BE
:104648002046FDF72BF9C8F3002518F4807F00F009
:10465800C083012208212046FDF720F9334C0122AE
:1046680010212046FDF71AF9002210212046FDF7F7
:1046780015F901224FF400612046FDF70FF90022D9
:104688004FF400712046FDF709F901224FF400713B
:104698002046FDF703F901224FF480712046FDF70B
:1046A800FDF8012202212046FDF7F8F800224FF418
:1046B80080712046FDF7F2F82046FEF7DAFAC0F3DB
:1046C8000A012046FEF7D0FA18F4004F40F087831D
:1046D800002208211548FDF7E1F8144C01221021A9
:1046E8002046FDF7DBF8002210212046FDF7D6F81A
:1046F800BBF1000F00F07983012208212046FDF765
:10470800CDF80A4C012210212046FDF7C7F80022F7
:1047180010212046FDF7C2F8BAF1000F00F06B83B4
:10472800012208212046FDF7B9F801E0000C0140FC
:10473800E44C012210212046FDF7B0F80022102198
:104748002046FDF7ABF8B9F1000F00F05A830122BB
:1047580008212046FDF7A2F8DA4C01221021204654
:10476800FDF79CF8002210212046FDF797F8009BE2
:10477800002B00F04C83012208212046FDF78EF81B
:10478800D04C012210212046FDF788F80022102184
:104798002046FDF783F8002F00F03F83012208210F
:1047A8002046FDF77BF8C74C012210212046FDF773
:1047B80075F8002210212046FDF770F8002E00F051
:1047C8003283012208212046FDF768F8BD4C0122FA
:1047D80010212046FDF762F8002210212046FDF73F
:1047E8005DF8002D00F02883012208212046FDF7FE
:1047F80055F8B44C012210212046FDF74FF800224D
:1048080010212046FDF74AF818F0800F00F01A83AF
:10481800012208212046FDF741F8AA4C0122102167
:104828002046FDF73BF8002210212046FDF736F818
:1048380018F0400F00F00C83012208212046FDF7F4
:104848002DF8A04C012210212046FDF727F8002260
:1048580010212046FDF722F818F0200F00F0FE8204
:10486800012208212046FDF719F8964C0122102153
:104878002046FDF713F8002210212046FDF70EF818
:1048880018F0100F00F0F082012208212046FDF7F1
:1048980005F88C4C012210212046FCF7FFFF00226E
:1048A80010212046FCF7FAFF18F0080F00F0E2820A
:1048B800012208212046FCF7F1FF824C0122102139
:1048C8002046FCF7EBFF002210212046FCF7E6FF0C
:1048D80018F0040F00F0D482012208212046FCF7CA
:1048E800DDFF784C012210212046FCF7D7FF00227B
:1048F80010212046FCF7D2FF18F0020F00F0C68204
:10490800012208212046FCF7C9FF6E4C0122102124
:104918002046FCF7C3FF002210212046FCF7BEFF0B
:1049280018F0010F00F0B882012208212046FCF798
:10493800B5FF644C012210212046FCF7AFFF00228E
:1049480010212046FCF7AAFF01224FF400612046FF
:10495800FCF7A4FF00224FF400712046FCF79EFFED
:1049680001224FF400712046FCF798FF01224FF412
:1049780080712046FCF792FFFEF7E8FC05B0BDE821
:10498800F08F002208214F48FCF788FFFEF782BD10
:10499800002208214B48FCF781FFFEF791BD002259
:1049A80008214848FCF77AFFFEF7A0BD002208213D
:1049B8004448FCF773FFFEF7B0BD002208214148C8
:1049C800FCF76CFFFEF7C0BD002208213D48FCF74C
:1049D80065FFFEF7D0BD002208213A48FCF75EFFCC
:1049E800FEF7DFBD002208213648FCF757FFFEF727
:1049F800EFBD012208213846FCF750FFFEF727BE1D
:104A0800002208212F48FCF749FFFEF734BE002298
:104A180008212C48FCF742FFFEF741BE002208217E
:104A28002848FCF73BFFFEF74EBE00220821254828
:104A3800FCF734FFFEF75BBE002208212148FCF793
:104A48002DFFFEF768BE002208211E48FCF726FF4E
:104A5800FEF779BE002208211A48FCF71FFFFEF76F
:104A680086BE002208211748FCF718FFFEF793BE00
:104A7800002208211348FCF711FFFEF7A0BE002210
:104A880008211048FCF70AFFFEF7ADBE00220821F6
:104A98000C48FCF703FFFEF7BABE002208210948BC
:104AA800FCF7FCFEFEF7C7BE002208210548FCF70C
:104AB800F5FEFEF7D4BE002208210248FCF7EEFE00
:104AC800FEF7E1BE000C014000220821D948FCF79E
:104AD800E5FEFEF7ECBE00220821D648FCF7DEFE14
:104AE800FEF79BBF00220821D248FCF7D7FEFEF74D
:104AF800AABF00220821CF48FCF7D0FEFEF7B9BFB5
:104B080000220821CB48FCF7C9FEFEF7C9BF0022E6
:104B18000821C848FCF7C2FEFEF7D8BF00220821CA
:104B2800C448FCF7BBFEFEF7EBBF00220821C148D2
:104B3800FCF7B4FEFEF7FBBF00220821BD48FCF7D6
:104B4800ADFEFFF70AB8012208213046FCF7A6FEA1
:104B5800FFF742B800220821B648FCF79FFEFFF78E
:104B68004FB800220821B348FCF798FEFFF75CB85D
:104B780000220821AF48FCF791FEFFF769B8002230
:104B88000821AC48FCF78AFEFFF776B80022082116
:104B9800A848FCF783FEFFF783B800220821A54840
:104BA800FCF77CFEFFF790B800220821A148FCF72B
:104BB80075FEFFF79CB8002208219E48FCF76EFEA0
:104BC800FFF7A9B8002208219A48FCF767FEFFF70B
:104BD800B6B8002208219748FCF760FEFFF7C3B873
:104BE800002208219348FCF759FEFFF7D0B80022AD
:104BF80008219048FCF752FEFFF7DDB80022082193
:104C08008C48FCF74BFEFFF7EAB8002208218948D8
:104C1800FCF744FEFFF7F7B8002208218548FCF7A7
:104C28003DFEFFF704B9002208218248FCF736FE52
:104C3800FFF7B9B9002208217E48FCF72FFEFFF7DD
:104C4800C8B9002208217B48FCF728FEFFF7D7B92E
:104C5800002208217748FCF721FEFFF7E7B9002278
:104C680008217448FCF71AFEFFF7F6B9002208215C
:104C78007048FCF713FEFFF705BA002208216D48BB
:104C8800FCF70CFEFFF714BA002208216948FCF76C
:104C980005FEFFF724BA012208212846FCF7FEFD8D
:104CA800FFF75CBA002208216248FCF7F7FDFFF71E
:104CB80069BA002208215F48FCF7F0FDFFF776BAD1
:104CC800002208215B48FCF7E9FDFFF783BA0022C0
:104CD80008215848FCF7E2FDFFF78FBA00220821A7
:104CE8005448FCF7DBFDFFF79BBA00220821514826
:104CF800FCF7D4FDFFF7A8BA002208214D48FCF7BD
:104D0800CDFDFFF7B5BA002208214A48FCF7C6FDD9
:104D1800FFF7C2BA002208214648FCF7BFFDFFF79B
:104D2800CFBA002208214348FCF7B8FDFFF7DCBAE8
:104D3800002208213F48FCF7B1FDFFF7E9BA00223D
:104D480008213C48FCF7AAFDFFF7F6BA0022082123
:104D58003848FCF7A3FDFFF707BB002208213548B8
:104D6800FCF79CFDFFF714BB002208213148FCF733
:104D780095FDFFF721BB002208212E48FCF78EFD88
:104D8800FFF7D1BB002208212A48FCF787FDFFF76F
:104D9800E0BB002208212748FCF780FDFFF7EFBBA6
:104DA800002208212348FCF779FDFFF7FEBB00220B
:104DB80008212048FCF772FD0EE4002208211D4856
:104DC800FCF76CFD1EE4002208211A48FCF766FD7A
:104DD8002EE4002208211748FCF760FD3EE401227A
:104DE80008212046FCF75AFD77E4002208211148E3
:104DF800FCF754FD85E4002208210E48FCF74EFD1F
:104E080096E4002208210B48FCF748FDA4E40022A0
:104E180008210848FCF742FDB2E4002208210548B1
:104E2800FCF73CFDBFE4002208210248FCF736FDF0
:104E3800CCE400BF000C0140002208211948FCF70F
:104E48002DFDD6E4002208211648FCF727FDE4E4EE
:104E5800002208211348FCF721FDF2E40022082172
:104E68001048FCF71BFD00E5002208210D48FCF75F
:104E780015FD0EE5002208210A48FCF70FFD1CE588
:104E8800002208210748FCF709FD2AE5002208212D
:104E98000448FCF703FD38E5002208210148FCF727
:104EA800FDFC46E5000C01402DE9F843074688461D
:104EB80015469946BDF82040FEF74EFAEF1BBFB2E3
:104EC8000137BFB2D7E1012208212846FCF7E6FCEA
:104ED800A0E0002208212948FCF7E0FCAEE000220F
:104EE80008212648FCF7DAFCBCE000220821234808
:104EF800FCF7D4FCCAE0002208212048FCF7CEFCCD
:104F0800D8E0002208211D48FCF7C8FCE6E0002292
:104F180008211A48FCF7C2FCF4E0002208211748CF
:104F2800FCF7BCFC02E1002208211448FCF7B6FC9F
:104F380010E1002208211148FCF7B0FC1EE1002214
:104F480008210E48FCF7AAFC2CE1002208210B4896
:104F5800FCF7A4FC3AE1002208210848FCF79EFC73
:104F680048E1002208210548FCF798FC56E1002298
:104F780008210248FCF792FC64E100BF000C0140E4
:104F880000220821BF48FCF789FCBE4D01221021F0
:104F98002846FCF783FC002210212846FCF77EFCFB
:104FA80001224FF400612846FCF778FC00224FF4F8
:104FB80000712846FCF772FC01224FF40071284664
:104FC800FCF76CFC01224FF480712846FCF766FC64
:104FD8000136B6B2BE4280F04A81AA4D01220221B2
:104FE8002846FCF75BFC00224FF480712846FCF74A
:104FF80055FC2846FDF73DFEC0F30A012846FDF79B
:1050080033FE14F4004F7FF45EAF002208219D4860
:10501800FCF744FC9B4D012210212846FCF73EFC7E
:10502800002210212846FCF739FC14F4804F3FF485
:1050380050AF012208212846FCF730FC914D01228F
:1050480010212846FCF72AFC002210212846FCF7EC
:1050580025FC14F4005F3FF442AF012208212846E2
:10506800FCF71CFC874D012210212846FCF716FC92
:10507800002210212846FCF711FC14F4805F3FF44D
:1050880034AF012208212846FCF708FC7D4D012297
:1050980010212846FCF702FC002210212846FCF7C4
:1050A800FDFB14F4006F3FF426AF012208212846C7
:1050B800FCF7F4FB734D012210212846FCF7EEFBA8
:1050C800002210212846FCF7E9FB14F4806F3FF416
:1050D80018AF012208212846FCF7E0FB694D0122A0
:1050E80010212846FCF7DAFB002210212846FCF79D
:1050F800D5FB14F4007F3FF40AAF012208212846AB
:10510800FCF7CCFB5F4D012210212846FCF7C6FBBB
:10511800002210212846FCF7C1FB14F4807F3FF4DD
:10512800FCAE012208212846FCF7B8FB554D0122A8
:1051380010212846FCF7B2FB002210212846FCF774
:10514800ADFB14F0800F3FF4EEAE01220821284693
:10515800FCF7A4FB4B4D012210212846FCF79EFBCF
:10516800002210212846FCF799FB14F0400F3FF469
:10517800E0AE012208212846FCF790FB414D0122B0
:1051880010212846FCF78AFB002210212846FCF74C
:1051980085FB14F0200F3FF4D2AE012208212846E7
:1051A800FCF77CFB374D012210212846FCF776FBE3
:1051B800002210212846FCF771FB14F0100F3FF471
:1051C800C4AE012208212846FCF768FB2D4D0122B8
:1051D80010212846FCF762FB002210212846FCF724
:1051E8005DFB14F0080F3FF4B6AE012208212846F3
:1051F800FCF754FB234D012210212846FCF74EFBF7
:10520800002210212846FCF749FB14F0040F3FF454
:10521800A8AE012208212846FCF740FB194D0122BF
:1052280010212846FCF73AFB002210212846FCF7FB
:1052380035FB14F0020F3FF49AAE012208212846EC
:10524800FCF72CFB0F4D012210212846FCF726FB0A
:10525800002210212846FCF721FB14F0010F3FF42F
:105268008FAE012208212846FCF718FB8DE608F1CD
:1052780001081FFA88F8C84501D80026AAE6BDE843
:10528800F88300BF000C014000B583B0009040F2E5
:105298003F13EF2200210846FFF706FE03B05DF832
:1052A80004FB000010B5FDF7E7FCFE4C01220421C9
:1052B8002046FCF7F3FA052008F0F0FF0121002052
:1052C800FDF76EFE052008F0E9FFCF20FDF7F4FC9E
:1052D800012202212046FCF7E1FA00224FF48071F6
:1052E8002046FCF7DBFA2046FDF7C3FCC0F30A01B1
:1052F8002046FDF7B9FC002208212046FCF7CEFA2B
:10530800012210212046FCF7C9FA0022102120466C
:10531800FCF7C4FA002208212046FCF7BFFA012254
:1053280010212046FCF7BAFA002210212046FCF78B
:10533800B5FA002208212046FCF7B0FA0122102114
:105348002046FCF7ABFA002210212046FCF7A6FA0B
:10535800002208212046FCF7A1FA0122102120464C
:10536800FCF79CFA002210212046FCF797FA00224D
:1053780008212046FCF792FA012210212046FCF76A
:105388008DFA002210212046FCF788FA0022082115
:105398002046FCF783FA012210212046FCF77EFA0A
:1053A800002210212046FCF779FA00220821204625
:1053B800FCF774FA012210212046FCF76FFA00224C
:1053C80010212046FCF76AFA002208212046FCF743
:1053D80065FA012210212046FCF760FA002210210C
:1053E8002046FCF75BFA002208212046FCF756FA13
:1053F800012210212046FCF751FA002210212046F4
:10540800FCF74CFA002208212046FCF747FA012253
:1054180010212046FCF742FA002210212046FCF712
:105428003DFA002208212046FCF738FA0122102113
:105438002046FCF733FA002210212046FCF72EFA0A
:10544800002208212046FCF729FA012210212046D3
:10545800FCF724FA002210212046FCF71FFA00224C
:1054680008212046FCF71AFA012210212046FCF7F1
:1054780015FA002210212046FCF710FA0022082114
:105488002046FCF70BFA012210212046FCF706FA09
:10549800002210212046FCF701FA002208212046AC
:1054A800FCF7FCF9012210212046FCF7F7F900224D
:1054B80010212046FCF7F2F9002208212046FCF7CB
:1054C800EDF9012210212046FCF7E8F9002210210D
:1054D8002046FCF7E3F901224FF400612046FCF76F
:1054E800DDF900224FF400712046FCF7D7F90122BC
:1054F8004FF400712046FCF7D1F901224FF4807176
:105508002046FCF7CBF9012202212046FCF7C6F918
:1055180000224FF480712046FCF7C0F92046FDF7C1
:10552800A8FBC0F30A012046FDF79EFB00220821D4
:105538002046FCF7B3F9012210212046FCF7AEF90A
:10554800002210212046FCF7A9F900220821204654
:10555800FCF7A4F9012210212046FCF79FF900224C
:1055680010212046FCF79AF9002208212046FCF772
:1055780095F9012210212046FCF790F9002210210C
:105588002046FCF78BF9002208212046FCF786F913
:10559800012210212046FCF781F900221021204623
:1055A800FCF77CF9002208212046FCF777F9012254
:1055B80010212046FCF772F9002210212046FCF742
:1055C8006DF9002208212046FCF768F90122102114
:1055D8002046FCF763F9002210212046FCF75EF90B
:1055E800002208212046FCF759F901221021204603
:1055F800FCF754F9002210212046FCF74FF900224D
:1056080008212046FCF74AF9012210212046FCF720
:1056180045F9002210212046FCF740F90122082113
:105628002046FCF73BF9012210212046FCF736F909
:10563800002210212046FCF731F9012208212046DA
:10564800FCF72CF9012210212046FCF727F900224B
:1056580010212046FCF722F9002208212046FCF7F9
:105668001DF9012210212046FCF718F9002210210B
:105678002046FCF713F9012208212046FCF70EF911
:10568800012210212046FCF709F9002210212046AA
:10569800FCF704F9012208212046FCF7FFF8012253
:1056A80002E000BF000C014010212046FCF7F6F88C
:1056B800002210212046FCF7F1F80022082120469C
:1056C800FCF7ECF8012210212046FCF7E7F800224D
:1056D80010212046FCF7E2F8002208212046FCF7BA
:1056E800DDF8012210212046FCF7D8F8002210210D
:1056F8002046FCF7D3F8012208212046FCF7CEF813
:10570800012210212046FCF7C9F80022102120466A
:10571800FCF7C4F801224FF400612046FCF7BEF8FC
:1057280000224FF400712046FCF7B8F801224FF42C
:1057380000712046FCF7B2F801224FF48071204630
:10574800FCF7ACF8012202212046FCF7A7F800225A
:105758004FF480712046FCF7A1F82046FDF789FA3E
:10576800C0F30A012046FDF77FFA002208212046EF
:10577800FCF794F8012210212046FCF78FF800224C
:1057880010212046FCF78AF8002208212046FCF761
:1057980085F8012210212046FCF780F8002210210C
:1057A8002046FCF77BF8002208212046FCF776F813
:1057B800012210212046FCF771F800221021204612
:1057C800FCF76CF8002208212046FCF767F8012254
:1057D80010212046FCF762F8002210212046FCF731
:1057E8005DF8002208212046FCF758F80122102114
:1057F8002046FCF753F8002210212046FCF74EF80B
:10580800002208212046FCF749F8012210212046F1
:10581800FCF744F8002210212046FCF73FF800224C
:1058280008212046FCF73AF8012210212046FCF70F
:1058380035F8002210212046FCF730F80022082114
:105848002046FCF72BF8012210212046FCF726F809
:10585800002210212046FCF721F8002208212046CA
:10586800FCF71CF8012210212046FCF717F800224B
:1058780010212046FCF712F8002208212046FCF7E8
:105888000DF8012210212046FCF708F8002210210B
:105898002046FCF703F8012208212046FBF7FEFF0B
:1058A800012210212046FBF7F9FF00221021204693
:1058B800FBF7F4FF012208212046FBF7EFFF012246
:1058C80010212046FBF7EAFF002210212046FBF7B3
:1058D800E5FF002208212046FBF7E0FF0122102106
:1058E8002046FBF7DBFF002210212046FBF7D6FFFE
:1058F800002208212046FBF7D1FF01221021204673
:10590800FBF7CCFF002210212046FBF7C7FF00223F
:1059180008212046FBF7C2FF012210212046FBF791
:10592800BDFF002210212046FBF7B8FF0022082106
:105938002046FBF7B3FF012210212046FBF7AEFFFC
:10594800002210212046FBF7A9FF01224FF4006135
:105958002046FBF7A3FF00224FF400712046FBF717
:105968009DFF01224FF400712046FBF797FF0122AB
:105978004FF480712046FBF791FFED20FDF79CF96D
:10598800012202212046FBF789FF00224FF4807193
:105998002046FBF783FF2046FDF76BF9C0F30A01A9
:1059A8002046FDF761F9002208212046FBF776FF23
:1059B800012210212046FBF771FF0022102120460A
:1059C800FBF76CFF002208212046FBF767FF012246
:1059D80010212046FBF762FF002210212046FBF72A
:1059E8005DFF002208212046FBF758FF0122102105
:1059F8002046FBF753FF002210212046FBF74EFFFD
:105A0800002208212046FBF749FF012210212046E9
:105A1800FBF744FF002210212046FBF73FFF00223E
:105A280008212046FBF73AFF012210212046FBF708
:105A380035FF002210212046FBF730FF0022082105
:105A48002046FBF72BFF012210212046FBF726FFFB
:105A5800002210212046FBF721FF002208212046C2
:105A6800FBF71CFF012210212046FBF717FF00223D
:105A780010212046FBF712FF002208212046FBF7E1
:105A88000DFF012210212046FBF708FF00221021FC
:105A98002046FBF703FF002208212046FBF7FEFE05
:105AA800012210212046FBF7F9FE00221021204692
:105AB800FBF7F4FE012208212046FBF7EFFE012246
:105AC80010212046FBF7EAFE002210212046FBF7B2
