:020000040800F2
:1000000000C00020713F0008E1380008E338000814
:10001000E5380008E7380008E9380008000000006B
:10002000000000000000000000000000EB380008A5
:10003000ED38000800000000EF380008F138000833
:10004000B93F0008B93F0008B93F0008B93F0008B0
:10005000B93F0008B93F0008F93800080D39000819
:100060002139000835390008B93F0008B93F0008B8
:10007000B93F0008493900085939000869390008B2
:10008000B93F0008B93F0008B93F0008B93F000870
:10009000B93F0008B93F0008B93F0008B93F000860
:1000A000B93F0008B93F0008B93F0008B93F000850
:1000B000B93F0008E9390008B93F0008B93F000816
:1000C000B93F0008B93F0008B93F00087939000876
:1000D000B93F0008813B0008B93F0008B93F00085C
:1000E000B93F0008B93F0008B93F0008B93F000810
:1000F000B93F0008B93F0008B93F0008B93F000800
:10010000B93F0008B93F0008B93F0008B93F0008EF
:10011000B93F0008B93F0008B93F0008B93F0008DF
:10012000B93F0008B93F0008B93F0008B93F0008CF
:1001300000000000000000000000000000000000BF
:1001400000000000000000000000000000000000AF
:10015000000000000000000000000000000000009F
:10016000000000000000000000000000000000008F
:10017000000000000000000000000000000000007F
:10018000000000000000000000000000000000006F
:10019000000000000000000000000000000000005F
:1001A000000000000000000000000000000000004F
:1001B000000000000000000000000000000000003F
:1001C000000000000000000000000000000000002F
:1001D000000000000000000000000000000000001F
:0401E0005FF8E0F1F3
:1001E80010B5054C237833B9044B13B10448AFF369
:1001F80000800123237010BDB80900200000000012
:1002080040A0000808B5034B1BB103490348AFF3EE
:10021800008008BD00000000BC09002040A00008C4
:10022800844641EA000313F0030349D1403A23D33B
:100238000B6803604B6843608B688360CB68C3605E
:100248000B6903614B6943618B698361CB69C36146
:100258000B6A03624B6A43628B6A8362CB6AC3622E
:100268000B6B03634B6B43638B6B8363CB6BC36316
:1002780040304031403ADBD230320BD30B68036058
:100288004B6843608B688360CB68C3601030103163
:10029800103AF3D20C3205D351F8043B40F8043B32
:1002A800043AF9D2043208D0D2071CBF11F8013B36
:1002B80000F8013B01D30B8803806046704700BFFC
:1002C800082A13D38B07B1D010F00303AED0C3F1C3
:1002D8000403D21ADB071CBF11F8013B00F8013BED
:1002E800A4D331F8023B20F8023B9FE7043AD9D364
:1002F800013A11F8013B00F8013BF9D20B78037081
:100308004B7843708B7883706046704781F000416A
:1003180002E000BF83F0004330B54FEA41044FEAE2
:10032800430594EA050F08BF90EA020F1FBF54EA7D
:10033800000C55EA020C7FEA645C7FEA655C00F019
:10034800E2804FEA5454D4EB5555B8BF6D420CDDEA
:100358002C4480EA020281EA030382EA000083EA6D
:10036800010180EA020281EA0303362D88BF30BD0D
:1003780011F0004F4FEA01314FF4801C4CEA113163
:1003880002D0404261EB410113F0004F4FEA0333C2
:100398004CEA133302D0524263EB430394EA050F4D
:1003A80000F0A780A4F10104D5F1200E0DDB02FABC
:1003B8000EFC22FA05F2801841F1000103FA0EF250
:1003C800801843FA05F359410EE0A5F120050EF116
:1003D800200E012A03FA0EFC28BF4CF0020C43FA47
:1003E80005F3C01851EBE37101F0004507D54FF054
:1003F800000EDCF1000C7EEB00006EEB0101B1F5A4
:10040800801F1BD3B1F5001F0CD349085FEA3000E9
:100418004FEA3C0C04F101044FEA445212F5800FF4
:1004280080F09A80BCF1004F08BF5FEA500C50F191
:10043800000041EB045141EA050130BD5FEA4C0C74
:10044800404141EB0101013C28BFB1F5801FE9D2D1
:1004580091F0000F04BF01460020B1FA81F308BFF4
:100468002033A3F10B03B3F120020CDA0C3208DDC0
:1004780002F1140CC2F10C0201FA0CF021FA02F19B
:100488000CE002F11402D8BFC2F1200C01FA02F10B
:1004980020FA0CFCDCBF41EA0C019040E41AA2BF30
:1004A80001EB0451294330BD6FEA04041F3C1CDAF8
:1004B8000C340EDC04F11404C4F1200220FA04F018
:1004C80001FA02F340EA030021FA04F345EA0301C2
:1004D80030BDC4F10C04C4F1200220FA02F001FA84
:1004E80004F340EA0300294630BD21FA04F0294606
:1004F80030BD94F0000F83F4801306BF81F480119F
:100508000134013D4EE77FEA645C18BF7FEA655C11
:1005180029D094EA050F08BF90EA020F05D054EAE3
:10052800000C04BF1946104630BD91EA030F1EBFE8
:100538000021002030BD5FEA545C05D140004941EC
:1005480028BF41F0004130BD14F580043CBF01F5DF
:10055800801130BD01F0004545F0FE4141F47001C5
:100568004FF0000030BD7FEA645C1ABF19461046A0
:100578007FEA655C1CBF0B46024650EA013406BFA1
:1005880052EA033591EA030F41F4002130BD00BF60
:1005980090F0000F04BF0021704730B54FF480641D
:1005A80004F132044FF000054FF0000150E700BF9E
:1005B80090F0000F04BF0021704730B54FF48064FD
:1005C80004F1320410F0004548BF40424FF00001EA
:1005D8003EE700BF42004FEAE2014FEA31014FEA2D
:1005E80002701FBF12F07F4393F07F4F81F060517C
:1005F800704732F07F4208BF704793F07F4F04BFC7
:1006080041F40021704730B54FF4607401F00045A3
:1006180021F000411CE700BF50EA010208BF704703
:1006280030B54FF000050AE050EA010208BF7047F4
:1006380030B511F0004502D5404261EB41014FF45D
:10064800806404F132045FEA915C3FF4D8AE4FF065
:1006580003025FEADC0C18BF03325FEADC0C18BF48
:10066800033202EBDC02C2F1200300FA03FC20FA99
:1006780002F001FA03FE40EA0E0021FA02F11444E6
:10068800BDE600BF70B54FF0FF0C4CF4E06C1CEAFF
:1006980011541DBF1CEA135594EA0C0F95EA0C0F70
:1006A80000F0DEF82C4481EA030621EA4C5123EAE3
:1006B8004C5350EA013518BF52EA033541F4801112
:1006C80043F4801338D0A0FB02CE4FF00005E1FBC5
:1006D80002E506F00042E0FB03E54FF00006E1FB0F
:1006E80003569CF0000F18BF4EF0010EA4F1FF0452
:1006F800B6F5007F64F5407404D25FEA4E0E6D4192
:1007080046EB060642EAC62141EA55514FEAC520A2
:1007180040EA5E504FEACE2EB4F1FD0C88BFBCF51E
:10072800E06F1ED8BEF1004F08BF5FEA500E50F1CF
:10073800000041EB045170BD06F0004646EA010195
:1007480040EA020081EA0301B4EB5C04C2BFD4EBC7
:100758000C0541EA045170BD41F480114FF0000EC0
:10076800013C00F3AB8014F1360FDEBF002001F02E
:10077800004170BDC4F10004203C35DA0C341BDCA8
:1007880004F11404C4F1200500FA05F320FA04F07A
:1007980001FA05F240EA020001F0004221F00041AE
:1007A80010EBD37021FA04F642EB06015EEA430E21
:1007B80008BF20EAD37070BDC4F10C04C4F1200551
:1007C80000FA04F320FA05F001FA04F240EA020004
:1007D80001F0004110EBD37041F100015EEA430ED5
:1007E80008BF20EAD37070BDC4F1200500FA05F2F5
:1007F8004EEA020E20FA04F301FA05F243EA020374
:1008080021FA04F001F0004121FA04F220EA020082
:1008180000EBD3705EEA430E08BF20EAD37070BDC8
:1008280094F0000F0FD101F00046400041EB0101A8
:1008380011F4801F08BF013CF7D041EA060195F08A
:10084800000F18BF704703F00046520043EB030344
:1008580013F4801F08BF013DF7D043EA0603704731
:1008680094EA0C0F0CEA135518BF95EA0C0F0CD03C
:1008780050EA410618BF52EA4306D1D181EA030182
:1008880001F000414FF0000070BD50EA410606BF7C
:100898001046194652EA430619D094EA0C0F02D1C1
:1008A80050EA013613D195EA0C0F05D152EA033606
:1008B8001CBF104619460AD181EA030101F0004124
:1008C80041F0FE4141F470014FF0000070BD41F06D
:1008D800FE4141F4780170BD70B54FF0FF0C4CF447
:1008E800E06C1CEA11541DBF1CEA135594EA0C0F66
:1008F80095EA0C0F00F0A7F8A4EB050481EA030EB3
:1009080052EA03354FEA013100F088804FEA033399
:100918004FF0805545EA131343EA12634FEA022267
:1009280045EA111545EA10654FEA00260EF0004128
:100938009D4208BF964244F1FD0404F5407402D27A
:100948005B084FEA3202B61A65EB03055B084FEA0B
:1009580032024FF480104FF4002CB6EB020E75EB08
:10096800030E22BFB61A754640EA0C005B084FEA30
:100978003202B6EB020E75EB030E22BFB61A7546AD
:1009880040EA5C005B084FEA3202B6EB020E75EBF8
:10099800030E22BFB61A754640EA9C005B084FEA70
:1009A8003202B6EB020E75EB030E22BFB61A75467D
:1009B80040EADC0055EA060E18D04FEA051545EA6C
:1009C80016754FEA06164FEAC30343EA52734FEA15
:1009D800C2025FEA1C1CC0D111F4801F0BD141EA8E
:1009E80000014FF000004FF0004CB6E711F4801FF3
:1009F80004BF01430020B4F1FD0C88BFBCF5E06FD3
:100A08003FF6AFAEB5EB030C04BFB6EB020C5FEAE2
:100A1800500C50F1000041EB045170BD0EF0004E37
:100A28004EEA113114EB5C04C2BFD4EB0C0541EA69
:100A3800045170BD41F480114FF0000E013C90E666
:100A480045EA060E8DE60CEA135594EA0C0F08BF2A
:100A580095EA0C0F3FF43BAF94EA0C0F0AD150EA29
:100A680001347FF434AF95EA0C0F7FF425AF1046BC
:100A780019462CE795EA0C0F06D152EA03353FF4E4
:100A8800FDAE1046194622E750EA410618BF52EA61
:100A980043067FF4C5AE50EA41047FF40DAF52EA35
:100AA80043057FF4EBAE12E74FF0FF3C06E000BFD2
:100AB8004FF0010C02E000BF4FF0010C4DF804CDDF
:100AC8004FEA410C7FEA6C5C4FEA430C18BF7FEA9F
:100AD8006C5C1BD001B050EA410C0CBF52EA430CCD
:100AE80091EA030F02BF90EA020F0020704710F14D
:100AF800000F91EA030F58BF994208BF90422CBFDC
:100B0800D8176FEAE37040F0010070474FEA410CD4
:100B18007FEA6C5C02D150EA013C07D14FEA430CF2
:100B28007FEA6C5CD6D152EA033CD3D05DF8040B63
:100B3800704700BF8446104662468C461946634695
:100B480000E000BF01B5FFF7B7FF002848BF10F16C
:100B5800000F01BD4DF808EDFFF7F4FF0CBF0120B1
:100B680000205DF808FB00BF4DF808EDFFF7EAFF2D
:100B780034BF012000205DF808FB00BF4DF808EDE8
:100B8800FFF7E0FF94BF012000205DF808FB00BFDD
:100B98004DF808EDFFF7CEFF94BF012000205DF867
:100BA80008FB00BF4DF808EDFFF7C4FF34BF012074
:100BB80000205DF808FB00BF4FEA410C7FEA6C5C3F
:100BC80002D150EA013C0AD14FEA430C7FEA6C5C3F
:100BD80002D152EA033C02D14FF0000070474FF0B7
:100BE800010070474FEA410212F5001215D211D5E3
:100BF8006FF47873B3EB625212D94FEAC12343F012
:100C0800004343EA505311F0004F23FA02F018BF93
:100C1800404270474FF00000704750EA013005D15C
:100C280011F0004008BF6FF0004070474FF000001F
:100C3800704700BF53B94AB9002908BF00281CBF34
:100C48004FF0FF314FF0FF3000F076B9ADF1080CEE
:100C58006DE904CE00F006F8DDF804E0DDE90223D2
:100C680004B070472DE9F047089E0D4604468846B3
:100C7800002B4DD18A42944668D9B2FA82F252B119
:100C880001FA02F3C2F1200120FA01F10CFA02FC88
:100C980041EA030894404FEA1C41B8FBF1F71FFAF8
:100CA8008CFE01FB178807FB0EF0230C43EA084370
:100CB80098420AD91CEB030307F1FF3580F01E8127
:100CC800984240F21B81023F63441B1AB3FBF1F0C8
:100CD80001FB103300FB0EFEA4B244EA0344A64510
:100CE8000AD91CEB040400F1FF3380F00981A64502
:100CF80040F20681644402380021A4EB0E0440EA65
:100D080007401EB10023D440C6E90043BDE8F08780
:100D18008B4208D9002E00F0EE800021C6E90005BC
:100D28000846BDE8F087B3FA83F100294AD1AB42FF
:100D380002D3824200F2FC80841A65EB030301208F
:100D48009846002EE2D0C6E90048DFE702B9FFDE88
:100D5800B2FA82F2002A40F09180A1EB0C00012146
:100D68004FEA1C471FFA8CFEB0FBF7F307FB130092
:100D7800250C45EA00450EFB03F0A84208D91CEBF8
:100D8800050503F1FF3802D2A84200F2CE8043469F
:100D98002D1AB5FBF7F007FB10550EFB00FEA4B2A9
:100DA80044EA0544A64508D91CEB040400F1FF35C4
:100DB80002D2A64500F2B6802846A4EB0E0440EA0B
:100DC80003409EE7C1F120078B4022FA07FC4CEA5A
:100DD800030C25FA07FA4FEA1C49BAFBF9F820FA7E
:100DE80007F309FB18AA8D401FFA8CFE1D4300FA71
:100DF80001F308FB0EF02C0C44EA0A44A04202FA64
:100E080001F20BD91CEB040408F1FF3A80F088804A
:100E1800A04240F28580A8F102086444241AB4FB79
:100E2800F9F009FB104400FB0EFEADB245EA04449C
:100E3800A64508D91CEB040400F1FF356CD2A64581
:100E48006AD90238644440EA0840A0FB0295A4EB42
:100E58000E04AC42C846AE4656D353D0002E69D0D5
:100E6800B3EB080264EB0E0422FA01F304FA07F765
:100E78001F43CC40C6E90074002147E70CFA02FC86
:100E8800C2F1200125FA01F34FEA1C4720FA01F1CB
:100E980095400D43B3FBF7F107FB11331FFA8CFEA6
:100EA800280C40EA034001FB0EF3834204FA02F4E3
:100EB80008D91CEB000001F1FF382FD283422DD94D
:100EC80002396044C01AB0FBF7F307FB1300ADB258
:100ED80045EA004503FB0EF0A84208D91CEB0505BE
:100EE80003F1FF3816D2A84214D9023B6544281AE8
:100EF80043EA014138E73146304607E72F46E4E642
:100F08001846F9E64B45A9D2B9EB020865EB0C0E79
:100F18000138A3E74346EAE7284694E74146D1E784
:100F2800D0467BE76444023847E7023B65442FE735
:100F3800084606E73146E9E6704700BF10B50446A3
:100F48000E4B18784FF47A73B3FBF0F30C4A106821
:100F5800B0FBF3F000F0A8F868B90F2C01D9012014
:100F68000AE0002221464FF0FF3000F057F8054B09
:100F78001C60002000E0012010BD00BF0000002020
:100F8800080000200400002008B5074A136843F051
:100F980010031360032000F02FF80020FFF7CEFFA6
:100FA80002F074FC002008BD00200240034A1168CA
:100FB800034B1B780B441360704700BFD409002013
:100FC80000000020014B1868704700BFD4090020BA
:100FD80038B50446FFF7F6FF0546B4F1FF3F02D0E7
:100FE800044B1B781C44FFF7EDFF401BA042FAD3CB
:100FF80038BD00BF00000020074AD36823F4E0632F
:101008001B041B0C000200F4E060034343F0BF63C1
:1010180043F40033D360704700ED00E000B5194B8E
:10102800DB68C3F30223C3F1070CBCF1040F28BF2C
:101038004FF0040C03F1040EBEF1060F18D9033B60
:101048004FF0FF3E0EFA0CFC21EA0C0199400EFA13
:1010580003F322EA0303194300280BDB0901C9B291
:1010680000F1604000F5614080F800135DF804FB72
:101078000023E5E700F00F000901C9B2024B19543B
:10108800F4E700BF00ED00E014ED00E0002807DB06
:1010980000F01F02400901239340024A42F8203021
:1010A800704700BF00E100E00138B0F1807F0BD24B
:1010B8004FF0E0235861054AF02182F82310002000
:1010C800986107221A6170470120704700ED00E01F
:1010D80030B40124056CAC40C56B6C600468636077
:1010E8004368102B05D0036899600368DA6030BC48
:1010F800704703689A600368D960F8E700283AD017
:1011080010B4024600681D4B984229D81C4B034472
:101118001C49A1FB03131B099B0013641A4BD363DF
:10112800022382F82130016821F47F5121F0300137
:10113800536894682343D468234314692343546948
:10114800234394692343D46923430B43036000205A
:101158009063012382F8213082F8200010BC704788
:101168000A4B03440749A1FB03131B099B001364A3
:10117800074BD363D4E70120704700BF0704024040
:10118800F8FFFDBFCDCCCCCC00000240F8FBFDBF82
:101198000004024038B5044690F82000012831D0F8
:1011A800012084F8200094F82100012804D00023AD
:1011B80084F82030022038BD022084F82100002065
:1011C800A0632568286820F0010028602046FFF702
:1011D8007FFFE36A5BB12268136843F00E03136074
:1011E8002268136843F0010313600020E3E72268D4
:1011F800136823F0040313602268136843F00A039A
:101208001360EDE70220D6E708B590F82130022BED
:1012180003D004238363012008BD0268136823F008
:101228000E0313600268136823F001031360036858
:101238004B4A93424ED9783A934224D0143293427F
:1012480030D0143293422FD0143293422FD014321C
:1012580093422FD0143293422FD0143293422FD07E
:1012680002F5627293422ED0143293422DD014327A
:1012780093422CD01432934202D04FF4803203E0D0
:101288004FF4805200E00122364B5A60012380F867
:101298002130002380F82030436B002B5ED0984724
:1012A8000020B9E71022EFE74FF48072ECE74FF423
:1012B8008052E9E74FF48032E6E74FF48012E3E723
:1012C8004FF08072E0E70122DEE71022DCE74FF4FE
:1012D8008072D9E7244A934224D01432934225D00D
:1012E8001432934224D01432934224D014329342BD
:1012F80024D01432934224D01432934224D002F5DD
:101308006272934223D01432934222D01432934211
:1013180021D01432934202D04FF4803203E04FF4CC
:10132800805200E00122114B5A60AFE71022FAE721
:101338004FF48072F7E74FF48052F4E74FF48032AD
:10134800F1E74FF48012EEE74FF08072EBE70122ED
:10135800E9E71022E7E74FF48072E4E700205BE753
:1013680080000240000402400800024000000240E1
:1013780038B5C36B1A6804682568016C04238B4070
:10138800134200F09B8015F0040F00F0978023684B
:1013980013F0200F03D1236823F0040323600368AC
:1013A8009A4A934246D9783A934224D014329342C7
:1013B80028D01432934227D01432934227D01432C3
:1013C800934227D01432934227D01432934227D025
:1013D80002F56272934226D01432934225D0143219
:1013E800934224D01432934202D04FF4802203E077
:1013F8004FF4804200E00422854B5A60C36A03B16F
:10140800984738BD4022F7E74FF48062F4E74FF47D
:101418008042F1E74FF48022EEE74FF48002EBE7D9
:101428004FF08062E8E70422E6E74022E4E74FF461
:101438008062E1E7774A934224D01432934225D060
:101448001432934224D01432934224D0143293425B
:1014580024D01432934224D01432934224D002F57B
:101468006272934223D01432934222D014329342B0
:1014780021D01432934202D04FF4802203E04FF47B
:10148800804200E00422644B5A60B7E74022FAE742
:101498004FF48062F7E74FF48042F4E74FF480227C
:1014A800F1E74FF48002EEE74FF08062EBE70422A9
:1014B800E9E74022E7E74FF48062E4E702238B4044
:1014C800134200F0AB8015F0020F00F0A7802368EC
:1014D80013F0200F06D1236823F00A0323600123A9
:1014E80080F821300368494A93424BD9783A9342AD
:1014F80024D0143293422DD0143293422CD014327B
:1015080093422CD0143293422CD0143293422CD0D4
:10151800143293422CD002F5627293422BD01432CB
:1015280093422AD01432934229D01432934202D0E3
:101538004FF4003203E04FF4005200E00222344B33
:101548005A60002380F82030836A002B3FF459AF9B
:10155800984756E72022F2E74FF40072EFE74FF47E
:101568000052ECE74FF40032E9E74FF40012E6E7E7
:101578004FF00072E3E70222E1E72022DFE74FF4B1
:101588000072DCE7234A934224D01432934225D0D8
:101598001432934224D01432934224D0143293420A
:1015A80024D01432934224D01432934224D002F52A
:1015B8006272934223D01432934222D0143293425F
:1015C80021D01432934202D04FF4003203E04FF49A
:1015D800005200E00222104B5A60B2E72022FAE7DC
:1015E8004FF40072F7E74FF40052F4E74FF400327B
:1015F800F1E74FF40012EEE74FF00072EBE702223A
:10160800E9E72022E7E74FF40072E4E780000240B0
:10161800000402400800024000000240082303FAC8
:1016280001F111423FF4EDAE15F0080F3FF4E9AEB9
:10163800236823F00E032360026CC16B012303FAB5
:1016480002F24A60836380F82130002380F820305A
:10165800036B002B3FF4D5AE9847D2E670B582B045
:101668000024A446B0E0874DAA4210D007D9864D81
:10167800AA420CD005F58035AA4208D013E0A5F59A
:101688008015AA4203D005F57025AA4207D18A68B9
:10169800002A62D0012A5BD04361082403E0A5F543
:1016A8008015AA42F3D0BEF1FF0F58D80646BEF106
:1016B800FF0F56D84FEA8C0233680F25954023EA6E
:1016C800050304FA02F2134333604B6813F0805F9A
:1016D80078D06E4B9A6942F001029A619B6903F0D7
:1016E80001030193019B4FEA9C02951C684B53F838
:1016F80025600CF003039D000F23AB4026EA030688
:10170800644B984233D003F58063984200F0988088
:1017180003F58063984200F0958003F58063984252
:1017280000F0928003F58063984200F08F8003F503
:101738008063984219D006231AE0CC68B3E7CC68D6
:101748000434B0E7CC680834ADE7CC680C34AAE7B9
:1017580003610824A7E70024A5E70424A3E7061DDE
:10176800A5E7ACF108029200A6E7052300E00023F4
:10177800AB4033430232464D45F822304B6813F4F0
:10178800803F65D0444A136843EA0E0313604B68F0
:1017980013F4003F62D0404A536843EA0E03536093
:1017A8004B6813F4801F5FD03B4A936843EA0E03EB
:1017B80093604B6813F4001F5CD0374AD36843EA40
:1017C8000E03D3600CF1010C0A6832FA0CF357D0FF
:1017D800012303FA0CF302EA030E33EA0202F1D101
:1017E8004A68122A3FF63FAF122A3FF65CAF01A5BE
:1017F80055F822F097160008431700084D170008FF
:101808005F170008AF160008AF160008AF160008EB
:10181800AF160008AF160008AF160008AF1600088C
:10182800AF160008AF160008AF160008AF1600087C
:10183800AF160008AF16000847170008531700082E
:10184800012395E7022393E7032391E704238FE716
:10185800114A136823EA0E03136098E70E4A536887
:1018680023EA0E0353609BE70B4A936823EA0E03AF
:1018780093609EE7084AD36823EA0E03D360A1E782
:1018880002B070BD000022100000311000100240AC
:101898000000014000080140000401400AB1016154
:1018A80070470904016170477047000008B5054B8F
:1018B8005B69034200D108BD024B5861FFF7F4FF92
:1018C800F9E700BF0004014082B0084B1B68084AD2
:1018D800A2FB03235B0A00FB03F3019300BF019BF8
:1018E8005A1E0192002BF9D102B07047080000205F
:1018F800D34D6210002800F0F18170B582B0044623
:10190800036813F0010F2CD0994B5B6803F00C03AC
:10191800042B1DD0964B5B6803F00C03082B12D0E8
:101928006368B3F5803F41D0002B55D103F1804364
:1019380003F504331A6822F480321A601A6822F414
:1019480080221A6037E08A4B5B6813F4803FE7D047
:10195800874B1B6813F4003F03D06368002B00F02B
:10196800BF81236813F0020F75D0814B5B6813F0B9
:101978000C0F5FD07E4B5B6803F00C03082B54D030
:101988002369002B00F08A807A4B01221A60FFF746
:1019980019FB0546764B1B6813F0020F75D1FFF74C
:1019A80011FB401B0228F5D903209EE1704A1368F9
:1019B80043F480331360636843B3FFF703FB0546C2
:1019C8006B4B1B6813F4003FCBD1FFF7FBFA401BAE
:1019D8006428F5D9032088E1B3F5A02F09D0644B1A
:1019E8001A6822F480321A601A6822F480221A6077
:1019F800E1E703F18043A3F53C331A6842F48022FF
:101A08001A601A6842F480321A60D4E7FFF7DAFAEB
:101A18000546574B1B6813F4003FA2D0FFF7D2FAD4
:101A2800401B6428F5D903205FE1514B5B6813F430
:101A3800803FA5D14E4B1B6813F0020F03D02369DA
:101A4800012B40F04F814A4A136823F0F80361697B
:101A580043EAC1031360236813F0080F33D0A36966
:101A6800002B5CD0434B0122C3F88024FFF7AAFA6D
:101A780005463F4B5B6A13F0020F21D1FFF7A2FA2C
:101A8800401B0228F5D903202FE1394A136823F0B7
:101A9800F803616943EAC1031360DCE7354B0022B0
:101AA8001A60FFF78FFA0546314B1B6813F0020FD7
:101AB800D1D0FFF787FA401B0228F5D9032014E19B
:101AC8000120FFF701FF236813F0040F00F0968050
:101AD800274BDB6913F0805F34D1254BDA6942F07C
:101AE8008052DA61DB6903F080530193019B012581
:101AF800214B1B6813F4807F26D0E368012B3DD06F
:101B0800002B53D103F1804303F504331A6A22F002
:101B180001021A621A6A22F004021A6233E0154BB3
:101B28000022C3F88024FFF74DFA0546104B5B6A84
:101B380013F0020FC7D0FFF745FA401B0228F5D96A
:101B48000320D2E00025D3E70B4A136843F48073DF
:101B58001360FFF737FA0646074B1B6813F4807FBC
:101B6800CBD1FFF72FFA801B6428F5D90320BCE0FE
:101B78000010024000004242007000405F4A136AB1
:101B880043F001031362E36833B3FFF71BFA064619
:101B98005A4B1B6A13F0020F2FD1FFF713FA801B61
:101BA80041F288339842F3D903209EE0052B09D0EF
:101BB800524B1A6A22F001021A621A6A22F00402CF
:101BC8001A62E0E74D4B1A6A42F004021A621A6A76
:101BD80042F001021A62D6E7FFF7F4F90646474BCE
:101BE8001B6A13F0020F08D0FFF7ECF9801B41F2D3
:101BF80088339842F3D9032077E0E5B9E369002BED
:101C080072D03E4A526802F00C02082A56D0022BC3
:101C180017D03B4B00221A66FFF7D4F90446374B1E
:101C28001B6813F0007F47D0FFF7CCF9001B022890
:101C3800F5D9032059E0314AD36923F08053D361A1
:101C4800DCE72F4B00221A66FFF7BCF905462B4B41
:101C58001B6813F0007F06D0FFF7B4F9401B022879
:101C6800F5D9032041E0236AB3F5803F1AD0234910
:101C78004B6823F47413226A606A024313434B606F
:101C88001F4B01221A66FFF79DF904461B4B1B6880
:101C980013F0007F0ED1FFF795F9001B0228F5D944
:101CA800032022E0154A536823F40033A1680B434C
:101CB8005360DCE7002018E0002016E0012B16D066
:101CC8000E4B5B6803F48031226A914211D103F410
:101CD8007013626A93420ED1002006E0012070471B
:101CE800012002E0012000E0002002B070BD0120C8
:101CF800FBE70120F9E70120F7E700BF00100240E9
:101D08000000424286B0174B0FCB0DF1180C0CE9BE
:101D18000F0040F20123ADF80430134B5B6803F069
:101D28000C02082A02D0114806B07047C3F3834258
:101D380018326A4412F8100C13F4803F0DD00A4B85
:101D48005B68C3F3404318336B4413F8143C074AE9
:101D580002FB00F0B0FBF3F0E6E7054B03FB00F0F5
:101D6800E2E700BF58A000080010024000127A0005
:101D780000093D00002800F0A08070B50D4604461B
:101D8800524B1B6803F007038B420BD24F4A136870
:101D980023F007030B431360136803F007038B4218
:101DA80040F08D80236813F0020F17D013F0040F52
:101DB80004D0474A536843F4E0635360236813F040
:101DC800080F04D0424A536843F460535360404AB2
:101DD800536823F0F003A1680B435360236813F0A2
:101DE800010F31D06368012B20D0022B25D0384A4F
:101DF800126812F0020F64D035494A6822F00302D3
:101E080013434B60FFF7DEF80646314B5B6803F07F
:101E18000C036268B3EB820F16D0FFF7D3F8801B70
:101E280041F288339842F0D9032045E0284A1268E5
:101E380012F4003FE0D101203EE0254A126812F07A
:101E4800007FD9D1012037E0204B1B6803F007033E
:101E5800AB420AD91D4A136823F007032B431360CA
:101E6800136803F00703AB422DD1236813F0040F66
:101E780006D0174A536823F4E063E1680B435360C4
:101E8800236813F0080F07D0114A536823F46053EE
:101E9800216943EAC1035360FFF734FF0C4B5B68C9
:101EA800C3F303130B4AD35CD8400B4B18600B4B9E
:101EB8001868FFF743F8002070BD01207047012023
:101EC800FAE70120F8E70120F6E700BF002002400A
:101ED8000010024028D50008080000200400002057
:101EE800014B1868704700BF0800002008B5FFF7CD
:101EF800F7FF044B5B68C3F30223034AD35CD84063
:101F080008BD00BF0010024038D5000808B5FFF72B
:101F1800E7FF044B5B68C3F3C223034AD35CD84092
:101F280008BD00BF0010024038D500082DE9F04177
:101F38000646884617461D463468A46838EA0403EE
:101F48000CBF4FF0010C4FF0000CBC4537D0B5F179
:101F5800FF3FF1D0FFF736F8069BC01AA84201D21E
:101F6800002DE9D13268536823F0E00353607368A9
:101F7800B3F5827F0BD0B36AB3F5005F14D00123A9
:101F880086F85130002386F85030032018E0B368F3
:101F9800B3F5004F02D0B3F5806FECD13268136807
:101FA80023F040031360E6E73268136823F4005314
:101FB80013603268136843F400531360DFE70020AE
:101FC800BDE8F08110B582B004460B4600920022AD
:101FD8008021FFF7ABFF08B902B010BD636D43F075
:101FE800200363650320F7E7002839D010B50446BD
:101FF8000023836290F85130002B2CD0022384F800
:1020080051302268136823F0400313606368A268A4
:102018001343E26813432269134362691343A269B5
:1020280002F400721343E2691343226A1343A16A5C
:1020380022680B431360638B226803F00403536028
:102048002268D36923F40063D3610020606501230B
:1020580084F8513010BD80F8503001F0C1FBCDE755
:10206800012070472DE9F04383B01D4690F85030A9
:10207800012B00F0CC80044688469146012380F865
:102088005030FEF79FFF074694F85160F6B2012ED4
:1020980040F0AA80B8F1000F00F0A780B9F1000F56
:1020A80000F0A380032384F8513000236365C4F84B
:1020B8003080A4F83490A4F83690A363A387E3870C
:1020C80063642364A368B3F5004F1ED023681A68BD
:1020D80012F0400F03D11A6842F040021A60E36818
:1020E800B3F5006F17D0636813B1B9F1010F4DD183
:1020F800226B236812781A73236B01332363E38EF0
:102108009BB2013B9BB2E38640E02268136843F42C
:1021180080431360DAE7636813B1B9F1010F16D190
:10212800226B23681288DA60236B02332363E38E01
:102138009BB2013B9BB2E38609E0FEF743FFC01B5D
:10214800A84202D3B5F1FF3F59D1002D59D0E38EF3
:102158009BB2002B33D023689A6812F0020FECD0A0
:10216800226B1288DA60236B02332363E38E9BB2FF
:10217800013B9BB2E386EAE7FEF724FFC01BA842B7
:1021880002D3B5F1FF3F3ED1002D3ED0E38E9BB286
:10219800ABB123689A6812F0020FEDD0226B127867
:1021A8001A73236B01332363B4F836C01FFA8CFC0F
:1021B8000CF1FF3C1FFA8CFCA4F836C0E6E73A465F
:1021C80029462046FFF7FEFE08B120236365A36871
:1021D80033B901932368DA6801929B680193019BE4
:1021E800636D13B9002600E00226012384F85130FC
:1021F800002384F85030304603B0BDE8F08303264E
:10220800F3E70326F1E70326EFE70326EDE70226C7
:10221800F1E7704730B585B00446026851689368A5
:10222800C3F3801013F0400F05D113F0010F02D053
:1022380011F0400F5AD113F0020F02D011F0800FA5
:1022480058D1C3F3401513F0200F01D1002854D002
:1022580011F0200F51D078B194F85130DBB2032B34
:102268004DD0636D43F00403636500230193D36885
:10227800019393680193019B65B1636D43F001037A
:1022880063650023039393680393136823F0400363
:102298001360039B636D002B2FD02268536823F0D3
:1022A800E0035360012384F8513011F0030F2ED05E
:1022B8002268536823F003035360E36C4BB1164A5A
:1022C8005A63E06CFEF7A0FF18B1636D43F040035A
:1022D8006365A36C8BB1104A5A63A06CFEF794FF38
:1022E80058B1636D43F04003636506E0236C2046F4
:1022F800984702E0636C2046984705B030BD00233C
:102308000293D368029393680293029BF5E72046F1
:10231800FFF77FFFF1E700BF2523000808B5406AF3
:102328000023C387C386FFF774FF08BD30B4036A70
:1023380023F001030362036A4268846924F073048A
:102348000D682C4323F0020C8B6843EA0C03104DF4
:10235800A84203D005F50065A84205D123F008037B
:10236800CD682B4323F00403094DA84203D005F59B
:102378000065A84205D122F440724D692A438D694F
:102388002A43426084614A684263036230BC7047F2
:10239800002C014030B4036A23F480730362036A9B
:1023A8004268C46924F0730C0C6844EA0C0523F4F1
:1023B80000738C6843EA0423114CA04203D004F54F
:1023C8000064A04206D123F40063CC6843EA0423E6
:1023D80023F480630A4CA04203D004F50064A042B1
:1023E80007D122F440524C6942EA04128C6942EA4D
:1023F80004124260C5614A68C263036230BC704718
:10240800002C014030B4036A23F480530362036A4A
:102418004468C26922F4E6420D6842EA052223F4C0
:1024280000538D6843EA0533094DA84203D005F5EA
:102438000065A84204D124F480444D6944EA851417
:102448004460C2614A680264036230BC704700BFDE
:10245800002C014010B4036A046A24F001040462E9
:10246800846924F0F00C4CEA021223F00A030B43AF
:102478008261036210BC704710B4046A24F010042F
:1024880004628469036A24F4704C4CEA023223F033
:10249800A00343EA01138261036210BC704783689A
:1024A80023F070030B4343F007038360704702680F
:1024B800D36843F00103D3600268936803F007030D
:1024C800062B03D0136843F0010313600020704704
:1024D8000268D36823F00103D3600368196A41F2E4
:1024E8001112114208D1196A40F24442114203D133
:1024F8001A6822F001021A6000207047704770477E
:10250800704770477047704710B5044603681A69EA
:1025180012F0020F11D0DA6812F0020F0DD06FF02E
:1025280002021A610123037703689B6913F0030F02
:1025380070D0FFF7E6FF0023237723681A6912F0AB
:10254800040F12D0DA6812F0040F0ED06FF00402F4
:102558001A610223237723689B6913F4407F5FD0B5
:102568002046FFF7CEFF0023237723681A6912F06D
:10257800080F12D0DA6812F0080F0ED06FF00802B8
:102588001A61042323772368DB6913F0030F4ED005
:102598002046FFF7B6FF0023237723681A6912F055
:1025A800100F12D0DA6812F0100F0ED06FF0100270
:1025B8001A61082323772368DB6913F4407F3DD031
:1025C8002046FFF79EFF0023237723681A6912F03D
:1025D800010F03D0DA6812F0010F36D123681A69A7
:1025E80012F0800F03D0DA6812F0800F34D123681C
:1025F8001A6912F0400F03D0DA6812F0400F32D196
:1026080023681A6912F0200F03D0DA6812F0200F3D
:1026180030D110BDFFF774FF2046FFF773FF8AE73C
:102628002046FFF76DFF2046FFF76CFF9BE720462B
:10263800FFF766FF2046FFF765FFACE72046FFF788
:102648005FFF2046FFF75EFFBDE76FF001021A61EA
:102658002046FFF754FFC1E76FF080021A61204659
:1026680000F003FAC3E76FF040021A612046FFF753
:102678004AFFC5E76FF020021A61204600F0F4F91E
:10268800C7E700000368244A904212D002F50062AE
:1026980090420ED0B0F1804F0BD0A2F59832904204
:1026A80007D002F58062904203D002F58062904222
:1026B80003D123F070034A681343174A904212D09B
:1026C80002F5006290420ED0B0F1804F0BD0A2F517
:1026D8009832904207D002F58062904203D002F50A
:1026E8008062904203D123F44073CA68134323F0F5
:1026F80080034A69134303608B68C3620B68836273
:10270800054B984203D003F50063984201D10B6949
:102718000363012343617047002C0140B0B110B539
:10272800044690F83D3063B1022384F83D302146D9
:1027380051F8040BFFF7A6FF012384F83D30002071
:1027480010BD80F83C3001F0B5FAEDE70120704784
:10275800B0B110B5044690F83D3063B1022384F857
:102768003D30214651F8040BFFF78CFF012384F814
:102778003D30002010BD80F83C30FFF7BFFEEDE78C
:102788000120704730B4036A23F010030362036A20
:102798004468826922F4E6420D6842EA052223F081
:1027A80020038D6843EA0513114DA84203D005F5AF
:1027B8000065A84206D123F08003CD6843EA0513DB
:1027C80023F040030A4DA84203D005F50065A8424E
:1027D80007D124F440644D6944EA85048D6944EACC
:1027E8008504446082614A688263036230BC704732
:1027F800002C014038B590F83C30012B66D00446D7
:102808000D46012380F83C30022380F83D300C2A25
:102818001AD8DFE802F007191919201919193419FB
:10282800191947000068FFF781FD2268936943F092
:10283800080393612268936923F004039361226873
:10284800936929690B439361012384F83D30002083
:1028580084F83C0038BD0068FFF794FF226893694C
:1028680043F4006393612268936923F4806393615E
:1028780022689369296943EA01239361E4E70068C0
:10288800FFF788FD2268D36943F00803D361226803
:10289800D36923F00403D3612268D36929690B4300
:1028A800D361D1E70068FFF7ADFD2268D36943F42F
:1028B8000063D3612268D36923F48063D3612268FB
:1028C800D369296943EA0123D361BDE70220C1E73F
:1028D80010B4846824F47F4C42EA03220A4342EA93
:1028E8000C02826010BC704790F83C30012B66D017
:1028F80010B50446012380F83C30022380F83D30AF
:102908000268936823F47F4323F0770393600B688E
:10291800602B40D022D8402B47D00BD9502B0ED15A
:10292800CA6849680068FFF795FD50212068FFF7DD
:10293800B6FD04E0202B0CD008D9302B09D0012398
:1029480084F83D30002084F83C0010BD0BB1102BFA
:10295800F5D119462068FFF7A2FDF0E7702B0ED0DD
:10296800B3F5005FEBD1CB684A6889680068FFF768
:10297800AFFF2268936843F480439360DFE7CB6836
:102988004A6889680068FFF7A3FF2268936843F0E4
:1029980077039360D3E7CA6849680068FFF76CFD5E
:1029A80060212068FFF77BFDC9E7CA6849680068AD
:1029B800FFF750FD40212068FFF771FDBFE70220B7
:1029C800704701F01F01012303FA01FC036A23EA9F
:1029D8000C030362036A02FA01F10B4303627047B6
:1029E80010B5044601220068FFF7EBFF23680B4A85
:1029F800934203D002F50062934203D15A6C42F429
:102A080000425A642268936803F00703062B03D038
:102A1800136843F001031360002010BD002C01402F
:102A280090F83C30012B1DD030B54FF0010E80F8E6
:102A38003CE0022380F83D3002685468936824F033
:102A480070040D682C4323F0800C4B6843EA0C0398
:102A580054600268936080F83DE0002380F83C30C1
:102A6800184630BD02207047704770470268D36827
:102A780023F0C003D360202380F839307047026800
:102A8800D36823F49073D3600268536923F0010379
:102A98005361202380F83A30704790F83930DBB220
:102AA800212B01D0022070478368B3F5805F17D0CF
:102AB800036A5A1C02621A7803685A60C38C9BB274
:102AC800013B9BB2C3844BB90268D36823F08003EF
:102AD800D3600268D36843F04003D3600020704796
:102AE800036A1B880268C3F30803536003691BB9B0
:102AF800036A02330362E1E7036A01330362DDE735
:102B080038B504460268136923F44053C1680B437F
:102B1800136183680269134342691A430168CB68E9
:102B280023F4B05323F00C031343CB6002685369BA
:102B380023F4407381690B4353610268214B9A4225
:102B48001FD0FFF7D3F900EB800202EB8202636823
:102B58009B00B2FBF3F21C48A0FB02314909642335
:102B680003FB11231B013233A0FB03235B0903F092
:102B7800F00202EB011203F00F03216813448B608B
:102B880038BDFFF7C3F900EB800000EB80006368F5
:102B98009B00B0FBF3F00C4DA5FB003251096423F8
:102BA80003FB11031B013233A5FB03235B0903F06D
:102BB800F00202EB011203F00F03216813448B604B
:102BC800DEE700BF003801401F85EB5158B310B550
:102BD800044690F839300BB3242384F8393022683E
:102BE800D36823F40053D3602046FFF789FF226897
:102BF800136923F4904313612268536923F02A036D
:102C080053612268D36843F40053D3600020E06323
:102C1800202384F8393084F83A3010BD80F83830F1
:102C280001F00AF9D8E701207047000038B590F89C
:102C38003930DBB2202B31D10446002930D0002AAC
:102C480030D090F83830012B2ED0012380F838305E
:102C580001628284C2840025C563212380F839304B
:102C6800036B12489862236B1148D862236B114892
:102C78001863236B5D6320681346021D206BFEF703
:102C880089FA23686FF040021A6084F83850226885
:102C9800536943F080035361284600E0022038BDA1
:102CA8000120FCE70120FAE70220F8E76B2D000875
:102CB800B72D0008AD2E000830B583B0044690F853
:102CC8003A00C0B220283CD100293DD0002A3DD08E
:102CD80094F83830012B3BD0012384F83830A162B6
:102CE800A2850025E563222384F83A30636B1948EE
:102CF8009862636B1848D862636B18481863636BF3
:102D08005D63206813460A46011D606BFEF742FAB0
:102D1800019523681A6801925A680192019A84F809
:102D28003850DA6842F48072DA602268536943F0F6
:102D3800010353612268536943F0400353612846F5
:102D480000E0022003B030BD0120FBE70120F9E7D5
:102D58000220F7E7C32D0008A12E0008AD2E0008B9
:102D6800704708B50346406A1B681B6813F0200FBC
:102D78000CD10023C3840268536923F08003536194
:102D88000268D36843F04003D36008BDFFF7E8FF4B
:102D9800FBE708B50168CA6822F04002CA60202231
:102DA80080F83920FFF7DCFF002008BD704708B520
:102DB800406AFFF7FBFF08BD704708B50346406A45
:102DC8001B681B6813F0200F13D10023C38502680A
:102DD800D36823F48073D3600268536923F0010336
:102DE80053610268536923F040035361202380F83C
:102DF8003A30FFF7E1FF08BD08B590F83A30DBB28A
:102E0800222B46D18368B3F5805F0FD003690BBBD3
:102E180003685A68836A591C81621A70C38D9BB211
:102E2800013B9BB2C385F3B1002008BD826A0369E8
:102E380043B903685B68C3F308031380836A0233EA
:102E48008362EBE703685B68DBB21380836A013354
:102E58008362E3E703685B68826A511C816203F05E
:102E68007F031370DAE70268D36823F02003D36086
:102E78000268D36823F48073D3600268536923F02F
:102E880001035361202380F83A30FFF795FF0020B3
:102E9800CBE70220C9E7704708B5406AFFF7FBFF98
:102EA80008BD704710B5446A23685A6994F83930E8
:102EB800DBB2212B10D023685A6902F0400294F843
:102EC8003A30DBB2222B11D0E36B43F01003E363FB
:102ED8002046FFF7E6FF10BD02F08002002AEAD084
:102EE8000023E3842046FFF7C1FDE4E7002AEBD086
:102EF8000023E3852046FFF7C2FDE5E710B5044649
:102F080002681368D168526913F00F0005D113F0F5
:102F1800200F02D011F0200F13D128B112F00102B6
:102F280013D111F4907F10D113F0800F02D011F05B
:102F3800800F69D113F0400F02D011F0400F67D114
:102F480010BD2046FFF758FFFAE713F0010F06D02F
:102F580011F4807F03D0E06B40F00100E06313F0D0
:102F6800040F04D01AB1E06B40F00200E06313F0E4
:102F7800020F04D01AB1E06B40F00400E06313F0D4
:102F8800080F04D01AB1E26B42F00802E263E26B68
:102F9800002AD5D013F0200F02D011F0200F21D134
:102FA80023685B6903F04003E26B12F0080F00D15D
:102FB80023B32046FFF763FD23685A6912F0400FD8
:102FC80018D05A6922F040025A61636B73B1124AF1
:102FD8005A63606BFEF718F90028B1D0606B436B39
:102FE8009847ADE72046FFF707FFD9E72046FFF7E8
:102FF80058FFA5E72046FFF754FFA1E72046FFF753
:1030080050FF0023E3639BE72046FFF746FD97E761
:103018002046FFF7BEFE93E72530000808B5406A52
:103028000023C385C384FFF73CFF08BD00B583B008
:10303800124B5A6942F001025A615B6903F00103BD
:103048000193019B002211460D20FDF7E7FF0D209B
:10305800FEF71CF8002211460E20FDF7DFFF0E20B8
:10306800FEF714F8002211460F20FDF7D7FF0F20B6
:10307800FEF70CF803B05DF804FB00BF0010024037
:1030880010B582B08DF807000A4C002208212046AE
:10309800FEF704FC4FF6FF7301220DF10701064805
:1030A800FEF7E0FF012208212046FEF7F7FB02B0F9
:1030B80010BD00BF000801408C0A002010B504466E
:1030C800012204210348FEF7E9FB2046FFF7D8FF59
:1030D80010BD00BF0008014010B5044601220421BC
:1030E8000448FEF7DBFB200AFFF7CAFFE0B2FFF750
:1030F800C7FF10BD0008014038B50446074D00223F
:1031080004212846FEF7CAFB2046FFF7B9FF012233
:1031180004212846FEF7C2FB38BD00BF0008014065
:10312800F8B507460D4616461C462A20FFF7E4FF69
:103138003846FFF7D1FF3046FFF7CEFF2B20FFF7C9
:10314800DBFF2846FFF7C8FF2046FFF7C5FF2C2006
:10315800FFF7D2FFF8BD000010B5704C0022022125
:103168002046FEF79BFB6420FDF732FF0122022177
:103178002046FEF793FB6420FDF72AFF0122102169
:103188002046FEF78BFB4FF4FA70FDF721FF112064
:10319800FFF7B2FF6420FDF71BFF3620FFF7ACFFF7
:1031A8000020FFF78BFF3A20FFF7A6FF0520FFF767
:1031B80085FFB220FFF7A0FF0C20FFF77FFF0C2050
:1031C800FFF77CFF0020FFF779FF3320FFF776FF3A
:1031D8003320FFF773FFB720FFF78EFF3520FFF787
:1031E8006DFFBB20FFF788FF3520FFF767FFC02082
:1031F800FFF782FF2C20FFF761FFC220FFF77CFF5B
:103208000120FFF75BFFC320FFF776FF1320FFF7CE
:1032180055FFC420FFF770FF2020FFF74FFFC6209F
:10322800FFF76AFF0F20FFF749FFCA20FFF764FF87
:103238000F20FFF743FFC820FFF75EFF0820FFF7C6
:103248003DFF5520FFF758FF9020FFF737FFD020AC
:10325800FFF752FFA420FFF731FFA120FFF72EFF51
:10326800E020FFF749FFD020FFF728FF0020FFF7F5
:1032780025FF0620FFF722FF0920FFF71FFF0B207D
:10328800FFF71CFF2A20FFF719FF3C20FFF716FF66
:103298005520FFF713FF4B20FFF710FF0820FFF71B
:1032A8000DFF1620FFF70AFF1420FFF707FF19206C
:1032B800FFF704FF2020FFF701FFE120FFF71CFFC5
:1032C800D020FFF7FBFE0020FFF7F8FE0620FFF7EF
:1032D800F5FE0920FFF7F2FE0B20FFF7EFFE29208D
:1032E800FFF7ECFE3620FFF7E9FE5420FFF7E6FE75
:1032F8004B20FFF7E3FE0D20FFF7E0FE1620FFF757
:10330800DDFE1420FFF7DAFE2120FFF7D7FE20208C
:10331800FFF7D4FE2920FFF7EFFE10BD000801409B
:103328002DE9F84381460F4615469846BDF82060BA
:10333800013B013A9BB292B2FFF7F2FE08E0304639
:10334800FFF7CAFE0134A4B2AC42F8D30137BFB2CA
:10335800474501D24C46F7E7BDE8F88310B50B4660
:1033680014460246FFF7DCFE2046FFF7B5FE10BD07
:103378002DE9F04F87B0834603910093BDF84030A4
:1033880002939DF844301D4601939DF848905F08CC
:1033980013F00E0318BF012303EB151305FB03F30A
:1033A8000493203AD3B205932B4600EB550292B210
:1033B8000B449BB2013B013A9BB292B2FFF7B0FEBD
:1033C8005E464FF0000A554649E0059B03EB430370
:1033D800334A02EB830313F80A8000241DE0314BC3
:1033E800059A03EB021313F80A80F6E7059B03EB33
:1033F80043032D4A02EB031313F80A80EDE7029802
:10340800FFF76AFE0135EDB2B5FBF7F307FB13537F
:1034180013F0FF033FD00134E4B2072C1BD8B9F1F5
:10342800000F08D148FA04F313F0010FE7D0009811
:10343800FFF752FEE6E748FA04F313F0010F24D130
:103448000136B6B2A6EB0B03BB42E4D1039B0133B2
:103458009BB203935E460AF1010A1FFA8AFA049B9B
:103468009A451AD2019B0C2BAFD0019B102BB6D0DA
:10347800019B182BBAD0019B202B0ED10B4B059A20
:1034880003EB821313F80A80A7E7009A03993046E2
:10349800FFF764FFD4E71D46DDE707B0BDE8F08F0E
:1034A8006CA00008E0A40008D0AA0008A0BC00088E
:1034B8002DE9F04784B00446884615461F46BDF8F6
:1034C80030A09DF834609DF838900DE0CDF8089054
:1034D8000196CDF800A03B4641462046FFF748FF3D
:1034E80004EB5604A4B201352A78002AEED104B0C0
:1034F800BDE8F08770B586B0002402940394049464
:103508000594274B9A6942F010029A619A6902F071
:1035180010020092009A9A6942F004029A619B692B
:1035280003F004030193019B1E4E01221E21304625
:10353800FEF7B4F90F2302931B4B0393049402A9DB
:103548001A48FEF78BF81E2302930125039504946D
:103558000323059302A93046FEF780F82A46022184
:103568000620FDF75BFD0620FDF790FD2A460221A7
:103578000720FDF753FD0720FDF788FD2A46214661
:103588000820FDF74BFD0820FDF780FD2A460221A3
:103598000920FDF743FD0920FDF778FD06B070BD51
:1035A80000100240000801400000211000100140F6
:1035B80008B5094B9A789B799A4200D008BD064B0A
:1035C800DA78DB799A42F9D100210448FFF708FA42
:1035D800014B00221A70F1E7400A0020F40A00208B
:1035E80000B585B0024600230293182101914FF6D9
:1035F800FF71009150210846FFF75AFF05B05DF8AA
:1036080004FB72B6FEE700B591B02822002106A897
:1036180000F0FAFC002301930293039304930593AB
:10362800012206924FF4803307930A9202220D92E8
:103638000E934FF4E0130F9306A8FEF75BF980B9D9
:103648000F23019302210291002303934FF4806218
:103658000492059301A8FEF78DFB20B911B05DF81F
:1036680004FBFFF7CEFFFFF7CCFF000000B585B0E5
:10367800FDF78AFCFFF7C7FFFFF73CFFFFF7D6FC13
:1036880000F068FB00F0BEFB00F088F8FFF764FD6F
:103698004FF6FF7300934FF4A073F0220021084601
:1036A800FFF73EFE00230393354803681A68039228
:1036B8005A680392039ADA6842F01002DA606422C8
:1036C8003049FFF7F9FA304C2046FEF7F0FE236840
:1036D80041F288325A6326E02C4B1B791BB32A48E7
:1036E80003686FF01D021A61FEF7F2FE284800F029
:1036F8001FFC264B00221A7115E0244B1B7993B14D
:10370800214803686FF01D021A61FEF7E1FE2148A7
:1037180000F00EFC1D4B00221A7104E01B4B1B79B4
:1037280093B9FFF745FF194B1B78013B032B20D8B2
:1037380001A252F823F000BFE13600080337000861
:10374800253700086D3700080F4803686FF01D0221
:103758001A61FEF7BDFE104800F0EAFB0B4B002291
:103768001A71DEE7084B1A6800235363074A13707F
:10377800D9E7064B01221A7163229A71DA71D2E7EE
:10378800840C0020DC090020F40A0020400A0020F4
:1037980060D4000880D40008A0D4000808B50E48FA
:1037A8000E4B03604FF48273436000238360C36051
:1037B800036143614FF4007282610822C2610362AF
:1037C800436283620A23C362FEF70EFC00B908BD98
:1037D800FFF717FFFBE700BF8C0A0020003001400D
:1037E80010B586B0002302930393049305930268EF
:1037F800224B9A4201D006B010BD044603F560433F
:103808009A6942F480529A619A6902F4805200924D
:10381800009A9A6942F004029A619B6903F00403D2
:103828000193019BA023029302230393032305938F
:1038380002A91348FDF712FF1248134B0360102327
:103848004360002383608022C26003614361836117
:103858004FF48053C361FDF751FC58B9094BA36479
:103868005C62002211462320FDF7D8FB2320FDF7D8
:103878000DFCC0E7FFF7C5FEF0E700BF00300140D0
:1038880000080140480A00203000024000B583B01B
:103898000F4B9A6942F001029A619A6902F001029B
:1038A8000092009ADA6942F08052DA61DB6903F02B
:1038B80080530193019B0520FDF79EFB054A536841
:1038C80023F0E06343F00073536003B05DF804FB3A
:1038D8000010024000000140FEE7FEE7FEE7FEE7B9
:1038E800FEE770477047704708B5FDF75FFB08BDF6
:1038F80008B50120024B1870FDF7D8FF08BD00BFBE
:10390800400A002008B50220024B1870FDF7CEFFD0
:1039180008BD00BF400A002008B5034B03221A70F7
:103928000420FDF7C3FF08BD400A002008B5034B7B
:1039380004221A700820FDF7B9FF08BD400A0020CC
:1039480008B50248FDF714FD08BD00BF480A00206D
:1039580008B50248FDF70CFD08BD00BF400C00206B
:1039680008B50248FDF704FD08BD00BFFC0B0020A8
:1039780008B50248FEF74EFC08BD00BF8C0A0020BF
:1039880010B582B0134B5B783C2B15D0114B9B784C
:103998003C2B18D00F4A53780F4C00939378D27869
:1039A8000E49204600F082FB204600F0C1FA20466E
:1039B800FFF716FE02B010BD064B00225A709A7827
:1039C80001329A70E2E7034B00229A70DA780132EA
:1039D800DA70DFE7400A0020E40A0020D8D40008A3
:1039E80008B5054A5378013353700448FEF78CFD37
:1039F800FFF7C6FF08BD00BF400A0020F40A0020F8
:103A080008B5172804D8044BD87001225A7108BD8C
:103A1800024800F08DFAFAE7400A0020E8D40008CE
:103A280008B53B2804D8044B987001225A7108BD88
:103A3800024800F07DFAFAE7400A0020E8D40008BE
:103A480001460020024609E08B5C00EB800003EB96
:103A58004003DBB2303BD8B20132D2B2012AF3D9EB
:103A68007047000008B54378027802EB820203EB46
:103A78004203DBB2103BDBB20279C17801EB810172
:103A880002EB4102172B04D8D2B2103AD2B23B2A29
:103A980003D9054800F04CFA08BD0449CB718A7176
:103AA80001234B71F8E700BF08D50008400A002041
:103AB8002B4B984200D0704710B50446294A11682C
:103AC8000B6823F001030B6013685B68C3F16403A0
:103AD800254A1370254B1B78012B11D0022B20D0BF
:103AE800032B2FD0204B00221A701E4B1B68642218
:103AF8005A60636B1A68136843F00103136010BDC2
:103B08001B48FFF79DFFFFF77BFF184B5B79002BE6
:103B1800E8D01848FEF7CBFC144B00221A705A71F3
:103B2800E0E71348FFF78CFFFFF77AFF0F4B5B794D
:103B3800002BD7D00F48FEF7BAFC0C4B00221A70A6
:103B48005A71CFE70A48FFF78DFF084B5B79002BC6
:103B5800C8D00848FEF7ABFC044B00225A71C1E7F5
:103B6800840C0020FC0B0020D8090020400A00200B
:103B7800DC090020F40A002010B582B00A4C204667
:103B8800FFF7BCF923681A6812F0100F01D102B0D0
:103B980010BD002201921A6801925B680193019B93
:103BA8002046FFF785FFF2E7840C002001207047CC
:103BB80008B500F0FFF9162303604FF0FF3008BD89
:103BC80008B54FF0FF31FFF7F3FFFEE770B50C467D
:103BD8001646002506E0AFF30080214601F8010BE8
:103BE80001350C46B542F6DB304670BD70B50C4663
:103BF8001646002504E014F8010BAFF300800135E8
:103C0800B542F8DB304670BD4FF0FF3070474FF4D7
:103C180000534B6000207047012070470020704718
:103C280010B503460C4A0D490D48006840B10C48D0
:103C380000680344521A934206D8094A136010BD1B
:103C48000748084C0460F2E700F0B4F90C2303605D
:103C58004FF0FF30F3E700BF00C000200004000071
:103C6800F00A0020100D00200F4B1A6842F00102E4
:103C78001A6059680D4A0A405A601A6822F084721C
:103C880022F480321A601A6822F480221A605A6874
:103C980022F4FE025A604FF41F029A60044B4FF060
:103CA80000629A60704700BF001002400000FFF8F1
:103CB80000ED00E002680E4B9A4200D0704700B554
:103CC80083B003F50333DA6942F00202DA61DB6993
:103CD80003F002030193019B022211461D20FDF708
:103CE8009DF91D20FDF7D2F903B05DF804FB00BF74
:103CF8000004004000B587B00023029303930493A7
:103D080005930268104B9A4202D007B05DF804FB95
:103D180003F503339A6942F010029A619B6903F034
:103D280010030193019B40230293022303930593FD
:103D380002A90648FDF792FC054A536843F0E06380
:103D480043F440635360E0E7000400400010014082
:103D58000000014000B58FB000230A930B930C9329
:103D68000D93089309930193029303930493059386
:103D7800069307932148224A026041F61F42426097
:103D8800836042F20F72C26003618361FEF7C6FC72
:103D980020BB4FF480530A930AA91848FEF7A4FDE4
:103DA800F8B91648FEF7D4FCF0B900230893099334
:103DB80008A91248FEF734FEC8B96023019300220F
:103DC80002920392059201A90C48FEF713FD88B9E7
:103DD8000A48FFF78FFF0FB05DF804FBFFF711FCEF
:103DE800D7E7FFF70EFCDCE7FFF70BFCDDE7FFF793
:103DF80008FCE2E7FFF705FCEAE700BFF40A002049
:103E08000004004008B50A480A4B03604FF4E13348
:103E1800436000238360C36003610C2242618361B5
:103E2800C361FEF7D3FE00B908BDFFF7EAFBFBE765
:103E3800840C00200038014070B586B0002302933E
:103E48000393049305930268334B9A4201D006B05A
:103E580070BD044603F558439A6942F480429A615A
:103E68009A6902F480420092009A9A6942F0040228
:103E78009A619B6903F004030193019B4FF400735B
:103E880002930223039303230593244E02A9304689
:103E9800FDF7E4FB4FF48063029300250395049536
:103EA80002A93046FDF7DAFB1D481E4B036045604A
:103EB80085608023C3600561456185614FF4805347
:103EC800C361FDF71BF900BB154B63635C621648C1
:103ED800164B036010234360002383608022C26076
:103EE8000361436183614FF48053C361FDF706F9B1
:103EF80070B90D4B23635C62032211462520FDF740
:103F08008DF82520FDF7C2F8A1E7FFF77AFBDBE77C
:103F1800FFF777FBEDE700BF0038014000080140DC
:103F2800FC0B002058000240400C002044000240D6
:103F38000FB430B583B006AB53F8042B0193084D8A
:103F4800C921284601F026FE044682B229460548C2
:103F5800FEF76CFE204603B0BDE8304004B0704761
:103F6800340B0020840C0020002103E00B4B5B582D
:103F7800435004310A480B4B42189A42F6D30A4A76
:103F880002E0002342F8043B084B9A42F9D3FFF7BA
:103F98006BFE00F015F8FFF769FB704754D900086D
:103FA80000000020B8090020B80900200C0D0020EE
:103FB800FEE70000014B1868704700BF0C000020A6
:103FC80070B50D4E0D4D761BB61006D0002455F871
:103FD800043B01349847A642F9D1094E094D06F031
:103FE8002BF8761BB61006D0002455F8043B013494
:103FF8009847A642F9D170BD48D9000848D90008A9
:1040080050D9000848D90008830730B548D0541E55
:10401800002A3FD00346CAB201E0013C3AD303F874
:10402800012B9D07F9D1032C2DD9CDB245EA0525E1
:104038000F2C45EA054536D9A4F1100222F00F0CE1
:1040480003F1200EE6444FEA121C03F1100242E984
:10405800045542E9025510327245F8D10CF10102BB
:1040680014F00C0F03EB021204F00F0C13D0ACF198
:10407800040323F003030433134442F8045B93421C
:10408800FBD10CF003042CB1CAB21C4403F8012B79
:104098009C42FBD130BD64461346002CF4D1F9E7AD
:1040A80003461446BFE71A46A446E0E70EB430B507
:1040B80004466FF000459CB00B4A1FAB0B490592B4
:1040C80053F8042B086802A9CDE901340795049533
:1040D800069400F00DF80022029B1A701CB0BDE88F
:1040E800304003B0704700BF0802FFFF0C000020FB
:1040F8002DE9F04FD5B00C460C9191460E930A90DD
:1041080002F0F2FE03681846179303F0E7FDA3894F
:104118001690190603D52369002B00F08F87002419
:104128002BAB224698464D46CDE929442893129454
:1041380000230024CDE914342B78CDE91922CDE9E8
:104148001B2218920892002B00F0CE81AA4604E0A8
:104158001AF8013F002B00F00981252BF8D1BAEBA2
:10416800050640F007819AF80030002B00F0BC816A
:1041780000234FF0FF324FF02B0920241F469AF8F6
:10418800016007920AF1010A8DF8833009930AF158
:10419800010AA6F120035A2B00F22081DFE813F070
:1041A800CA021E011E01C5021E011E011E01A30234
:1041B8001E011E016A00F3021E014702D9021E01F8
:1041C800D4025B005B005B005B005B005B005B0094
:1041D8005B005B001E011E011E011E011E011E0167
:1041E8001E01B0011E010B027A00B001B001B0013E
:1041F8001E011E011E011E019E021E011E01B600A7
:104208001E011E011E0119021E014C021E011E0183
:104218003F071E011E011E011E011E011E011E0177
:104228001E01B0011E010B027C00B001B001B001FB
:1042380091027C0075001E0184021E017002B80004
:104248005E0275001E01190272001C071E011E0184
:104258001F071E0172000022A6F130031AF8016B35
:1042680002EB820203EB4202A6F13003092BF5D9D7
:1042780009928EE70E9B53F8042B002A09920E939D
:10428800C0F2D2819AF8006081E79AF8006047F09E
:1042980020077CE747F01007BA060E9B40F17D81A6
:1042A800073323F007031A465B6852F8084B994610
:1042B8000E92002BC0F27F85079B013301F03980F5
:1042C80054EA090327F0800B00F005850A2C79F1E0
:1042D800000380F0938701235F4630348DF84F4107
:1042E8000B930DF24F15079A0B9900238A42B8BF1A
:1042F8000A4606929DF883200D930F93139310930B
:10430800002A7CD0069B0133069378E047F010071B
:1043180017F0200900F032810E9B073323F00703C2
:10432800D3F8049053F8084B0E93002327F4806BBE
:1043380000228DF88320079A511C00F02A8254EA43
:1043480009012BF0800740F02382002A41F02B80DE
:10435800002B40F0C5841BF001030B9300F054853B
:1043680030230DF24F158DF84F31BCE7BAEB050637
:1043780000F0BA802A9BC8E9005633442A93299B47
:104388000133072B299305DC08F10808089B3344FF
:104398000893E8E60C990A9828AA03F001FD80B969
:1043A8000DF1AC08F2E70C990A9828AA03F0F8FC7A
:1043B800002800F08A800D9B1BB10D990A9802F025
:1043C80093FC0C9B9B8913F0400F089B18BF4FF080
:1043D800FF330893089855B0BDE8F08F002E00F021
:1043E8008380012300228DF8EC6006933BAD8DF8A5
:1043F80083200B930D9207920F921392109217F04D
:10440800020302D006990231069117F0840B07D1F6
:1044180009990698A1EB0009B9F1000F00F336835A
:104428002A9C82B10122C8F80420299A0134013259
:104438000DF18301072A2A942992C8F8001000F385
:10444800698308F108087BB10223C8F80430299B66
:104458000234013321AA072B2A942993C8F8002093
:1044680000F36C8308F10808BBF1800F00F02E827E
:10447800079B0B9AA3EB020BBBF1000F00F37182B1
:10448800FB0500F1C5810B9BC8F800501C44C8F817
:104498000430299B2A940133072B299300F3EA82DD
:1044A80008F108087B0705D5099B069A9D1A002D77
:1044B80000F35083DDE9083206998A42ACBF9B18A5
:1044C8005B180893002C7FF46EAF002329930D9B93
:1044D8001BB10D990A9802F007FC55460DF1AC087E
:1044E8002B78002B7FF432AE2A9B002B3FF469AF68
:1044F8000C9C0A98214628AA03F052FCA38962E77B
:104508000E9B073323F00702F2E80234CDE9143496
:10451800DDE9143424F00044994618460E922146E9
:104528004FF0FF32B64BFCF747FB002840F096846B
:10453800484621464FF0FF32B14BFCF71FFB0028DD
:1045480040F08C84DDE9140100220023FCF70CFB09
:10455800002840F0A6879DF8832000210320A94D5C
:10456800A94B27F080070D910690472EC8BF1D461E
:1045780007910B900F9113911091C1E617F010035A
:1045880040F0628417F0400200F07B870E9A99464B
:1045980052F8044B0E92A4B2C7E653F8044B0E939C
:1045A800FB0600F141847D0640F13B8444F3C039A9
:1045B8004B4624B27DE6012000220E9B069053F85C
:1045C800041B3BAD8DF883208DF8EC100E930B90F7
:1045D80010E74FF000090E9C079B54F8045B8DF818
:1045E8008390002D00F0EE865A1C00F060851A4674
:1045F8004946284602F030FF0D90002801F09E80C1
:104608000D9B9DF883205B1B0B9323EAE373CDF886
:104618001C900E940693CDF83490CDF83C90CDF8CC
:104628004C90CDF840906BE6099B5B4209939AF851
:10463800006047F00407AAE547F0100B1BF02009BB
:1046480000F0AA830E9B073323F007031A4652F89B
:10465800084BD3F804900E92012369E6302278269D
:104668000E9B8DF8842053F8044B684A0E934FF044
:104678000009022347F0020B8DF88560189257E66F
:10468800BD0600F1D683FC0600F19386780600F19A
:104698005D87B90540F18D860E9B089953F8042B68
:1046A800554611700E931BE79AF800606C2E03BFF5
:1046B8009AF8016047F020070AF1010A47F010074D
:1046C80065E59AF80060682E03BF9AF8016047F420
:1046D80000770AF1010A47F0400758E59AF80060A8
:1046E80047F0080753E50A9E304602F0FDFB436891
:1046F80018461B9303F0F2FA034630461C931E46F5
:1047080002F0F2FB83681993002E3FF4BBAD199BAE
:10471800002B3FF4B7AD199B1B78002B3FF4B2ADCB
:104728009AF8006047F4806731E59AF8006047F02E
:1047380001072CE59DF88330002B7FF4A3AD9AF890
:1047480000608DF8834022E59AF8006047F0800702
:104758001DE5524612F8016B2A2E01F0EB81A6F1F5
:104768003003092B924698BF002201F203801AF801
:10477800016B02EB820203EB4202A6F13003092B24
:10478800F5D9079205E59AF800608DF88390FEE464
:10479800BB46012B3FF49AAD022B54AD12D1189AA7
:1047A80004F00F03D35C240944EA09744FEA191989
:1047B80005F8013D54EA0903F2D154AB5B1B5F468F
:1047C8000B9390E504F00703E40844EA49744FEAC0
:1047D800D909303354EA09012A4605F8013DF1D1D7
:1047E8001BF0010FE9D0302BE7D03023023A05F84F
:1047F800013C54AB9B1A5F4615460B9373E500BF0B
:10480800FFFFEF7F44D5000848D5000854D50008BD
:10481800652E40F3E980DDE9140100220023FCF74E
:1048280099F9002800F0D2810123C8F80430299BA7
:10483800BF4A01330134072B2A942993C8F8002072
:1048480000F37A8508F10808229B129A934280F2B5
:10485800D782169B179A1C44C8E90023299B2A94DF
:104868000133072B299300F3DD8308F10808129B15
:104878005D1E002D7FF716AE102D41F34181DFF844
:10488800B492224649461026B946299B0F46DDF8C0
:1048980028B00C9C05E008F10808103D102D40F3E5
:1048A800588501331032072BC8E90076CDE9293243
:1048B800F1DD2146584628AA03F072FA00287FF451
:1048C8007AADDDE929320DF1AC08E6E7099B069AD5
:1048D800A3EB020BBBF1000F7FF7CAADBBF1100FC2
:1048E80041F30580DFF84C9241462046A8464C46E5
:1048F8001023299A0C9DDDF8289006E0ABF1100BE7
:10490800BBF1100F01F1080119DD01321030072A3F
:10491800C1E90043CDE92920F0DD2946484628AA07
:1049280003F03EFA00287FF446ADDDE92920ABF11B
:10493800100BBBF1100F4FF010032BA9E5DC454617
:10494800A1468846044601325C44072ACDE9292459
:10495800C8F80090C8F804B000F3188508F10808F2
:1049680086E5BBF1100F40F39785DFF8C891414603
:104978002046A8464C461023299A0C9DDDF828901D
:1049880006E0ABF1100BBBF1100F01F1080119DDC6
:1049980001321030072AC1E90043CDE92920F0DDB2
:1049A8002946484628AA03F0FBF900287FF403ADFE
:1049B800DDE92920ABF1100BBBF1100F4FF010030C
:1049C8002BA9E5DC4546A1468846044601325C44ED
:1049D800072ACDE92924C8F80090C8F804B000F3E4
:1049E800CE8108F108084BE5129B012B40F37E812C
:1049F8000123299E01341E44072EC8F800502A942A
:104A0800C8F80430299600F3E18108F10808169BDC
:104A18000136179A1C44072EC8E90023CDE92964FA
:104A280000F3E18108F108080022DDE91401002300
:104A3800FCF790F8002840F07681129B0136013B84
:104A480001351C44072EC8F800502996C8F80430D0
:104A58002A9400F35B8108F108081A9B01361C446C
:104A6800C8F80430072E24ABCDE92964C8F8003013
:104A78007FF716AD0C990A9828AA03F091F9002837
:104A88007FF499AC2A9C0DF1AC080BE5B9F1100F35
:104A980040F35086DDE929214046CDE91D36B84668
:104AA80010244F460C9EA9460A9D04E0103F102F83
:104AB80000F1080016DD01321F4B1031072AC0E94A
:104AC8000034CDE92921F1DD3146284628AA03F032
:104AD80067F900287FF46FACDDE92921103F102F1A
:104AE8002BA8E8DC4D46DDE91D36B9464746804629
:104AF80009EB010401321049072ACDE92924C8F835
:104B08000490C8F8001000F3C3839DF8832008F1CF
:104B1800080886E40C990A9828AA1D9303F040F91E
:104B280000287FF448AC2A9C1D9B0DF1AC088AE450
:104B380084D5000898D5000888D500080C990A98EB
:104B480028AA03F02DF900287FF435AC2A9C0DF132
:104B5800AC0889E4102D40F3C4861026299B0A9FCF
:104B6800DDF8309004E0103D102D08F1080817DD3D
:104B78000133B84A1034072BC8E90026CDE9293497
:104B8800F1DD4946384628AA03F00AF900287FF4DF
:104B980012ACDDE92934103D102D0DF1AC08E7DC2D
:104BA8000133AC4A2C44072BCDE92934C8F804500A
:104BB800C8F800207FF77EAC0C990A9828AA03F061
:104BC800EFF800287FF4F7AB2A9C73E422990029B8
:104BD80040F36F83DDF84090129B9945A8BF994632
:104BE800B9F1000F0BDD299B4C440133072BC8E9B1
:104BF80000592A94299300F31D8508F10808109E8E
:104C0800B9F1000FA8BFA6EB0906002E00F3258214
:104C1800DDF840B07805AB4400F15F82229B129A20
:104C2800934202DBF90740F17684169A17991444E7
:104C3800C8E90012299A2A940132072A299200F316
:104C4800138508F10808129AAE18A6EB0B06D51AB8
:104C5800AE42A8BF2E46002E0DDD299B34440133F9
:104C6800072BC8F800B0C8F804602A94299300F309
:104C7800718508F10808002EA8BFAD1B002D7FF72D
:104C880011AC102D40F33C87DFF8CC912246494601
:104C98001026B946299B0F46DDF828B00C9C05E084
:104CA80008F10808103D102D40F3538301331032EA
:104CB800072BC8E90076CDE92932F1DD21465846AF
:104CC80028AA03F06DF800287FF475ABDDE92932D6
:104CD8000DF1AC08E6E7079B002B7FF4FCAA5F46C2
:104CE800002354AD07930B93FFF7FDBAFA073FF57E
:104CF8007FAE0123299E01341E44072EC8F80050B8
:104D08002A94C8F8043029967FF7A5AE0C990A981A
:104D180028AA03F045F800287FF44DABDDE92964A3
:104D28000DF1AC0899E6129B5D1E002D7FF795AE3C
:104D3800102D40F3DF86224607974FF0100BDFF85F
:104D480018910A9C0C9F05E008F10808103D102DE9
:104D580040F37F8301361032072EC8E9009BCDE966
:104D68002962F1DD3946204628AA03F019F80028FF
:104D78007FF421ABDDE929620DF1AC08E6E70C9977
:104D88000A9828AA03F00CF800287FF414AB2A9C90
:104D98000DF1AC08FFF774BB1BF010030E9A3AD163
:104DA8001BF0400133D052F8044B99460E92012370
:104DB800A4B2FFF7BDBA2D2364428DF88330BB46F9
:104DC8004FF0010369EB4909FFF7B5BA0C990A9846
:104DD80028AA02F0E5FF00287FF4EDAADDE929649E
:104DE8000DF1AC0813E60C990A9828AA02F0D8FF2E
:104DF80000287FF4E0AADDE929640DF1AC0813E688
:104E0800FD077FF54FAB24E554ADFFF76CBA1BF4F3
:104E1800007940F08A8352F8044B01230E92FFF781
:104E280087BAB80500F19B834FEAE4794B46FFF750
:104E380040BA0E9B089853F8041BC2175546C1E99F
:104E480000020E93FFF74CBB0E9B53F8044B0E93D6
:104E5800FFF76BBA88D5000898D50008DDE914017A
:104E680002460B46FBF7A8FE002840F0E985612EB4
:104E780000F07D85412E00F08B84079B013300F004
:104E88008F8326F02003472B069300F08F85DDE9FA
:104E9800141247F480730F931346002BC0F2B085A9
:104EA8000B9300238B461D930D93069B462B00F016
:104EB800E983452B00F0468507990B9B0191022158
:104EC800009126A9049123A9039122A95A460A9878
:104ED800029100F03DFF069B0546472B40F03A86BD
:104EE80017F0010FB9460F9F40F0FE84269B5B1B0D
:104EF8001293069B472B00F06E83069B462B00F00F
:104F0800F083229B1093109B069A013B412A22931F
:104F180000F0BB850021F2B2002B8DF89020B6BFBF
:104F28002D222B22109B8DF89120B8BFC3F10103CD
:104F3800092B40F39B850DF19F0C6246B64F1C462A
:104F4800104687FB0312D917C1EBA20101EB8102BE
:104F5800A3EB42023032632C00F8012C0B4600F11F
:104F6800FF32ECDC3033811EDBB28C4502F8013CA9
:104F780040F2F9850DF1920101E012F8013B9445E8
:104F880001F8013BF9D10DF1A1030DF192021B1AB1
:104F9800134424AA9B1A1A93129B1A9A012B1A4497
:104FA8000B9240F381850B9B169A13440B930023B5
:104FB8000B9A29F4806722EAE27247F480770F930C
:104FC8000692139310931D9B002B40F02C839DF8A1
:104FD80083200793FFF794B9BB46FFF72FBB8F4B8E
:104FE800189317F0200900F0F5800E9B073323F083
:104FF8000703D3F8049053F8084B0E93F80709D524
:1050080054EA090306D030238DF8856047F002077B
:105018008DF88430022327F4806BFFF789B9804B21
:105028001893DEE70C990A9828AA02F0B9FE00281E
:105038007FF4C1A92A9C0DF1AC0818E440210A9814
:1050480001F05EFF0C9B18601861002800F097853E
:1050580040230C9A5361FFF762B8102E40F376850F
:10506800DFF8C091424648462146A846B9464FF067
:10507800100B0746299B0A9C0C9D04E00832103E41
:10508800102E40F3138201331031072BC2E9007B45
:10509800CDE92931F2DD2946204628AA02F080FE12
:1050A80000287FF488A9DDE929312BAAE7E72846FB
:1050B800CDF81C900E9402F011FE20EAE0739DF8E2
:1050C80083200B90CDF83490CDF83C90CDF84C90DF
:1050D800CDF840900693FFF713B9129B4246DDF8CE
:1050E8004C80EB185E460793CDF82CA0109721460C
:1050F800199FDDF87090DDF828A0DDF830B00F9B1F
:105108001395B8F1000F2ED083BB013F08F1FF388B
:105118001B9B4944C2E90039299B2A910133072B7B
:10512800299360DC0832079B38789B1B8342A8BF11
:105138000346002B1C460BDD29981944013007282B
:10514800C2E900632A91299000F314813878083263
:10515800002CB4BF0546051B002D0BDC06440F9B35
:10516800B8F1000FD0D1002B00F026820F9B013B35
:105178000F93CDE7102D40F39D841024299804E067
:10518800103D102D02F1080216DD0130254B1031BB
:105198000728C2E90034CDE92901F1DD5946504616
:1051A80028AA02F0FDFD00287FF405A9DDE9290100
:1051B800103D102D2BAAE8DC01301A4B2944072892
:1051C800CDE929015560136000F34182387808322F
:1051D8000644C4E717F0100300F0A0800E9B53F8B4
:1051E800044B0E930AE75946504628AA02F0D8FD08
:1051F80000287FF4E0A82A992BAA94E700230BF44F
:1052080080620696CDF82CA0CDF8348092461E46D2
:10521800DDF8648054AF14E06766666654D500080C
:1052280068D5000898D500080023204649460A2278
:10523800FBF700FD0A2C79F100031BD304468946CD
:105248002F4620460A2200234946FBF7F3FC30325A
:105258007D1E013607F8012CBAF1000FE4D098F84A
:1052680000309E42E0D1FF2EDED00A2C79F10003F7
:1052780080F0308154AB5B1BDDF82CA0CDF8648046
:1052880012965F46069EDDF834800B93FFF72BB825
:105298000C990A9828AA1D9302F082FD00287FF431
:1052A8008AA89DF883202A9C1D9B0DF1AC08FFF766
:1052B800B8B80123C8F80430299BBC4A013301342B
:1052C800072B2A942993C8F8002000F3178108F1C6
:1052D8000808002940F08680129A07F0010313435A
:1052E8003FF4E0A8169B17991A19C8E90013299BDF
:1052F8002A920133072B299300F3378108F1080814
:10530800129901338C18072BCDE92934C8F80050BD
:10531800C8F804107FF7C4A8FFF7ACBB17F0400229
:1053280000F0A5800E9A994652F8044B0E92A4B24A
:1053380064E6BB46FEF7CABF0C990A9828AA02F091
:105348002FFD00287FF437A82A9C0DF1AC08FFF741
:105358007BBA14463A464F46914601332C44072BF4
:10536800C8F80090C8F80450CDE929347FF798A808
:10537800FFF780BB5946504628AA02F011FD0028C5
:105388007FF419A838782A992BAAE1E60C990A988B
:1053980028AA02F005FD00287FF40DA82A9C0DF12B
:1053A800AC08FFF765B8012BBB467FF4F5A9FEF7FB
:1053B80092BF0E9B089953F8042B554611600E9323
:1053C800FFF78EB8062B294628BF06232A460795DD
:1053D8000D950693764D0E940B930F9113911091A2
:1053E800FEF78EBF169B17981A19C8E90003299B68
:1053F8002A920133072B299300F3B78008F1080894
:105408000029BFF67DAF4E42103180F2A983414694
:105418001024A846DFF89C91DDF828B00C9D04E024
:105428000831103E102E40F3A78201331032072BAB
:10543800C1E90094CDE92932F2DD2946584628AA67
:1054480002F0AEFC00287EF4B6AFDDE929322BA9C4
:10545800E7E71446079F01362C44072ECDE9296457
:10546800C8F80090C8F804507FF7F5AA4EE417F47E
:1054780000790E9B66D053F8044B91460E93E4B224
:10548800BCE517F400790E9B57D053F8044B9146AE
:105498000E93E4B2FEF749BF299ADFF81891FFF797
:1054A80095BA2D228DF88320FFF757B845469046C8
:1054B8003A460C464F46914601333444072BCDE912
:1054C8002934C8F80090C8F804605CDC08F10808C2
:1054D800FFF79EBB1C9B1B99ED1A1A46284602F043
:1054E8002BFC98F801300BB108F101082046494619
:1054F8000A2200230026FBF79DFB9FE60C990A98D9
:1055080028AA02F04DFC00287EF455AF22992A9C67
:105518000DF1AC08DDE6129AAE18A6EB0B06D51A0B
:10552800AE42A8BF2E46FFF7A6BB52F8044B8946E9
:1055380001230E92E4B2FEF7FBBE53F8044B0E9320
:10554800FEF7F3BE53F8044B0E9357E50E9B0899EC
:1055580053F8042B554611800E93FEF7C1BF44F350
:10556800C0194B4664B2FEF7A4BE0C990A9828AA43
:1055780002F016FC00287EF41EAFDDE929322299DC
:105588000DF1AC083CE70C990A9828AA02F008FC2F
:1055980000287EF410AF2A9C0DF1AC08FFF738BB49
:1055A8000623079326F02003069370E484D50008A9
:1055B8007CD5000898D50008DDE91235EB189E4225
:1055C800B346199790460C4628BF9B46DDF82CA099
:1055D800109FFFF723BB229BDA1C109302DB079A6C
:1055E800934204DD023E26F0200306938BE4109BD1
:1055F800129A9342C0F2C28019F0010F00F01D8286
:10560800169A13440B9319F4806F00F01482109BC0
:105618006726002B76DC0B9B23EAE37306930023B3
:105628000F931393CFE42D2200238DF88320079343
:10563800FEF768BE0C990A9828AA02F0B1FB002868
:105648007EF4B9AE2A9C0DF1AC08FFF7D8BA5946DA
:10565800504628AA02F0A4FB00287EF4ACAE3878A5
:105668002A992BAA06447AE50C990A9828AA02F0E6
:1056780097FB00287EF49FAE229B2A9C0DF1AC0874
:10568800FFF7E1BA07990B9B01910321009126A925
:10569800049123A9039122A95A460A98029100F07D
:1056A80057FB03780546302B00F01682229B079A99
:1056B800B94613440F9FEC185846002200230B9953
:1056C800FBF748FA08B1234611E4269BA342BFF42E
:1056D8000EAC30215A1C26921970269B9C42F9D890
:1056E80005E4229A002A109240F30E82079909F0E5
:1056F80001030B4340F07E816626109B0B9319F43F
:10570800806F88D019990B78FF2B00F02582002430
:10571800109A204604E001300131FF2B00F0598136
:10572800934280F25681D21A4B78002BF3D10B7832
:105738000134F2E7DDE92921FFF7DAB9079B9DF883
:1057480083200E9406930B9307900F90139010905C
:10575800FEF7D6BD0C990A9828AA02F021FB00286A
:105768007EF429AE229D129B2A9C0DF1AC085D1B8C
:10577800FFF781BA00230793FEF70BBD129B169A19
:105788009A18109B0B92002B40F385816726B6E789
:1057980030238DF8843058238DF88530079B47F0E7
:1057A8000204632B00F3C48000233BAD0D9347F440
:1057B80081730F93DDE914121346002B2746C0F2BC
:1057C80084800B9300238B461D9326F020030693B9
:1057D800612E00F01881412E7FF467AB22AA58464B
:1057E8000B9902F031FA00224FF07F53FAF74AFF83
:1057F80002460B46CDE9102300220023FBF7AAF945
:1058080008B101232293AD4B0B93079BCDE912A658
:10581800CDE91E78DDE91067AB46DDF82CA003F171
:10582800FF39109506E00022002309F1FF39FBF744
:1058380091F9E8B90022A24B30463946FAF722FF1F
:105848000F460646FBF7CEF90446FAF7B1FE0B46BB
:10585800024639463046FAF75DFD1AF80430B9F1C8
:10586800FF3FD8464D4606460F460BF8013BDAD1B6
:10587800304639460022934BA946DDF848A0109DD2
:10588800CDF84880CDE91001DDF87C80139E1E9F7D
:10589800FBF788F980BBDDE910010022894BFBF793
:1058A80059F908B1E10727D44B46002B06DB302213
:1058B80001335B440BF8012B5B45FBD1ABEB0503D4
:1058C800B94612930F9FFFF714BB26F020030693E7
:1058D8002D22DDE914349B4604F100431D920B93FD
:1058E80076E7299BFFF75CB9079BEC18E4E6299A51
:1058F800DFF8D491FFF727B8129B26930B9B1BF870
:10590800012CD97B5B468A4209D1302003F8010C6F
:10591800269B5A1E269213F8012C9142F6D0392A5A
:105928000BBF0B9A0132927AD2B203F8012CC5E769
:105938000A98591C01F0E4FA0546002800F017817E
:105948000D9034E70221009107995A464C1C26A96C
:10595800049123A9039122A90B9B0A98019402910F
:1059680000F0F6F90546B9462C440F9FA4E630230B
:105978008DF8843078230FE7454688460133324452
:10598800072BCDE92932C8F80090C8F804607FF7E2
:10599800B5AC0C990A9828AA02F002FA00287EF4FD
:1059A8000AADDDE929320DF1AC08A9E4079B002B0B
:1059B80008BF0123079347F480730F93159B002BAF
:1059C800C0F2B680DDF850B00D900B931D90FFF734
:1059D80073BA1991109213900F940F9A139B1C99F4
:1059E80013440B9A01FB03230B9323EAE3730693F7
:1059F800FFF7E9BA169B6626D31819440B917EE681
:105A080000230D9364E722AA58460B9902F01CF96B
:105A180000224FF07F53FAF735FE02460B46CDE9D8
:105A2800102300220023FBF795F808B101232293E5
:105A3800264B0B93E9E66726EDE5109B0B93E2E511
:105A4800159B0320002BB8BF2D224FF00003A8BFE1
:105A58009DF8832019460D931D4D1E4BB8BF8DF838
:105A6800832027F080070690FEF77FBD002944D1E8
:105A780030228DF892200DF19302303302F8013B69
:105A880024ABD31A1A93FFF787BA06F10F02012144
:105A9800D2B2FFF741BAC3F101031A4422EAE27312
:105AA80067260B920693BAE519F0010F3FF47FAA17
:105AB800FFF779BA2998FFF77FBB00BF68D50008C0
:105AC800000030400000E03F98D5000854D5000899
